:0400000056EF00F0C7
:100008004482FACF2AF0FBCF2BF0D9CF2CF0DACFED
:100018002DF0F2AC12EF00F014EF00F04CEF00F00E
:10002800A0A619EF00F01BEF00F031EF00F0A1A639
:1000380020EF00F022EF00F031EF00F002D82FEFB0
:1000480000F00500FA6E0950FD6E0A50FE6EF85079
:10005800FF6EFA5012004CEF00F09DA636EF00F04C
:1000680038EF00F04CEF00F09EA63DEF00F03FEFB8
:1000780000F04CEF00F002D84CEF00F00500FA6EEB
:100088004150FD6E4250FE6EF850FF6EFA5012005D
:100098002DC0DAFF2CC0D9FF2BC0FBFF2AC0FAFF06
:1000A800449211002CEF05F0000E3E6E010E3D6EDD
:1000B8003EBE68EF00F03E5009E10D0E3D5CD8A051
:1000C80068EF00F06AEF00F06CEF00F047EF03F024
:1000D8007DEC05F03D043E10D8A475EF00F077EFF5
:1000E80000F0A3EF00F017C031F02FC0D9FF30C0E7
:1000F800DAFFDFAE02D0318001D031902FC0D9FFB6
:1001080030C0DAFFDFAC02D0318201D031922FC08B
:10011800D9FF30C0DAFFDFAA02D0318401D0319490
:100128002FC0D9FF30C0DAFFDFA802D0318601D056
:100138003196315042EC05F08C8243EF03F0020E09
:100148003D183E10D8A4ABEF00F0ADEF00F0D9EFAA
:1001580000F016C032F02FC0D9FF30C0DAFFDFA69A
:1001680002D0328001D032902FC0D9FF30C0DAFFE0
:10017800DFA402D0328201D032922FC0D9FF30C022
:10018800DAFFDFA202D0328401D032942FC0D9FF27
:1001980030C0DAFFDFA002D0328601D0329632506A
:1001A80042EC05F08C8443EF03F0030E3D183E103B
:1001B800D8A4E1EF00F0E3EF00F017EF01F015C06D
:1001C80033F020EE01F02F50D9263050DA22DFAE7E
:1001D80002D0338001D0339020EE01F02F50D92681
:1001E8003050DA22DFAC02D0338201D0339220EED5
:1001F80001F02F50D9263050DA22DFA802D03384FC
:1002080001D0339420EE01F02F50D9263050DA2255
:10021800DFAA02D0338601D03396335042EC05F082
:100228008B8443EF03F0040E3D183E10D8A41FEF53
:1002380001F021EF01F055EF01F014C034F020EE89
:1002480001F02F50D9263050DA22DFA602D03480B0
:1002580001D0349020EE01F02F50D9263050DA2208
:10026800DFA402D0348201D0349220EE01F02F5066
:10027800D9263050DA22DFA202D0348401D0349457
:1002880020EE01F02F50D9263050DA22DFA002D01C
:10029800348601D03496345042EC05F08C8043EF1C
:1002A80003F0050E3D183E10D8A45DEF01F05FEF96
:1002B80001F093EF01F013C035F020EE02F02F505B
:1002C800D9263050DA22DFAE02D0358001D0359001
:1002D80020EE02F02F50D9263050DA22DFAC02D0BF
:1002E800358201D0359220EE02F02F50D9263050B9
:1002F800DA22DFAA02D0358401D0359420EE02F04C
:100308002F50D9263050DA22DFA802D0358601D006
:100318003596355042EC05F08B8043EF03F0060E1E
:100328003D183E10D8A49BEF01F09DEF01F0D1EFEE
:1003380001F012C036F020EE02F02F50D9263050CE
:10034800DA22DFA602D0368001D0369020EE02F005
:100358002F50D9263050DA22DFA402D0368201D0BD
:10036800369220EE02F02F50D9263050DA22DFA242
:1003780002D0368401D0369420EE02F02F50D926D0
:100388003050DA22DFA002D0368601D036963650B9
:1003980042EC05F08B8243EF03F0070E3D183E1048
:1003A800D8A4D9EF01F0DBEF01F00FEF02F011C094
:1003B80037F020EE03F02F50D9263050DA22DFAE86
:1003C80002D0378001D0379020EE03F02F50D92685
:1003D8003050DA22DFAC02D0378201D0379220EEDB
:1003E80003F02F50D9263050DA22DFAA02D0378402
:1003F80001D0379420EE03F02F50D9263050DA225E
:10040800DFA802D0378601D03796375042EC05F086
:10041800898E43EF03F0080E3D183E10D8A417EF5D
:1004280002F019EF02F04DEF02F010C038F020EEA4
:1004380003F02F50D9263050DA22DFA602D03880B8
:1004480001D0389020EE03F02F50D9263050DA2210
:10045800DFA402D0388201D0389220EE03F02F506A
:10046800D9263050DA22DFA202D0388401D038945D
:1004780020EE03F02F50D9263050DA22DFA002D028
:10048800388601D03896385042EC05F0898C43EF15
:1004980003F0090E3D183E10D8A455EF02F057EFAF
:1004A80002F08BEF02F00FC039F020EE04F02F506D
:1004B800D9263050DA22DFAE02D0398001D0399007
:1004C80020EE04F02F50D9263050DA22DFAC02D0CB
:1004D800398201D0399220EE04F02F50D9263050BD
:1004E800DA22DFAA02D0398401D0399420EE04F050
:1004F8002F50D9263050DA22DFA802D0398601D011
:100508003996395042EC05F08D8243EF03F00A0E1C
:100518003D183E10D8A493EF02F095EF02F0C9EF12
:1005280002F00EC03AF020EE04F02F50D9263050D9
:10053800DA22DFA602D03A8001D03A9020EE04F009
:100548002F50D9263050DA22DFA402D03A8201D0C7
:100558003A9220EE04F02F50D9263050DA22DFA24A
:1005680002D03A8401D03A9420EE04F02F50D926D4
:100578003050DA22DFA002D03A8601D03A963A50BB
:1005880042EC05F08D8443EF03F00B0E3D183E104E
:10059800D8A4D1EF02F0D3EF02F007EF03F00DC0BB
:1005A8003BF020EE05F02F50D9263050DA22DFAE8E
:1005B80002D03B8001D03B9020EE05F02F50D92689
:1005C8003050DA22DFAC02D03B8201D03B9220EEE1
:1005D80005F02F50D9263050DA22DFAA02D03B840A
:1005E80001D03B9420EE05F02F50D9263050DA2266
:1005F800DFA802D03B8601D03B963B5042EC05F089
:100608008D8043EF03F00C0E3D183E10D8A40FEF79
:1006180003F011EF03F043EF03F00CC03CF020EEC1
:1006280005F02F50D9263050DA22DFA602D03C80C0
:1006380001D03C9020EE05F02F50D9263050DA2218
:10064800DFA402D03C8201D03C9220EE05F02F506E
:10065800D9263050DA22DFA202D03C8401D03C9463
:1006680020EE05F02F50D9263050DA22DFA002D034
:100678003C8601D03C963C5042EC05F0898A3D4AC4
:100688003E2A5CEF00F0120020EE06F02E50D9262C
:100698002F50DA22DFA402D0898601D0899620EE75
:1006A80006F02E50D9262F50DA22DFA202D08980F8
:1006B80001D0899020EE06F02E50D9262F50DA224C
:1006C800DFA002D08C8E01D08C9E20EE07F02E5039
:1006D800D9262F50DA22DFAE02D08C8C01D08C9C28
:1006E80020EE07F02E50D9262F50DA22DFAC02D0A8
:1006F8008A8201D08A9220EE07F02E50D9262F50F8
:10070800DA22DFAA02D0898201D0899220EE07F08E
:100718002E50D9262F50DA22DFA802D08C8A01D099
:100728008C9A20EE07F02E50D9262F50DA22DFA619
:1007380002D08C8801D08C9820EE07F02E50D92654
:100748002F50DA22DFA402D0898401D089941200C4
:1007580005EC06F007EC06F01A6E96EC05F0D8B03A
:10076800B8EF03F0BAEF03F0BEEF03F0020E1C6E11
:10077800EAEF03F0010E1C6EEAEF03F08AEC05F0D5
:10078800D8B0C9EF03F0CBEF03F0CFEF03F0D0EC14
:1007980004F0D3EF03F0E7EC04F00BEC06F0000EE6
:1007A8001B6EFFEF03F0A2EC05F0D8A0DEEF03F01C
:1007B800E0EF03F0E6EF03F0FEEC04F0020E1B6E30
:1007C800FFEF03F015EC05F0D3EF03F01C50286E93
:1007D800296A2950000AD8B4F4EF03F0FFEF03F0B8
:1007E8002850010AD8B4C2EF03F0030AD8B4D7EFEF
:1007F80003F0FFEF03F01BC01CF00DEC06F0120035
:100808000BC030F020EE07F02E50D9262F50DA22F8
:10081800DFA202D0308E01D0309E20EE07F02E509D
:10082800D9262F50DA22DFA002D0308C01D0309C9C
:1008380020EE08F02E50D9262F50DA22DFAE02D053
:10084800308A01D0309A20EE08F02E50D9262F5049
:10085800DA22DFAC02D0308801D03098309630945C
:1008680020EE07F02E50D9262F50DA22DFAC02D026
:10087800308201D03092309030C08AFF1200B5EC3F
:1008880005F0F28EF28C01EC06F08A8480EC04F01C
:10089800B00E2E6E0A0E2F6ECDEC05F0C20E2E6E27
:1008A8000B0E2F6ED7EC05F04350D8A45EEF04F082
:1008B80060EF04F062EF04F058EF04F08A841E0E33
:1008C8003F6E000E406E3FC02FF040C030F058EC35
:1008D80000F03FC02EF040C02FF048EC03F03FC0BE
:1008E8002EF040C02FF004EC04F0000E436E8A9402
:1008F80058EF04F056EF00F0580E306E070E316EC8
:10090800AEEC05F06EEC05F0820EEAEC05F07F0E19
:10091800E6EC05F01E0E2E6E0C0E2F6EDCEC05F0CC
:10092800DC0E2E6E0B0E2F6EC3EC05F0EC0E2E6E49
:100938000B0E2F6ECDEC05F0F40E2E6E0B0E2F6EF7
:10094800D7EC05F01E0E2E6E0C0E2F6EC8EC05F0BF
:100958001200000E8D6E000E8C6E000E896E000E59
:100968008A6E000E8B6E000E966E100E926E090E39
:10097800936E180E946E000E956E000E0F013B6F6D
:10098800000E3A6F000E396F000E3C6F000E386F84
:10099800000E616EF18E120005500610D8B4D7EF24
:1009A80004F0D9EF04F0E6EF04F002D8E6EF04F023
:1009B8000500FA6E0550FD6E0650FE6EF850FF6E8B
:1009C800FA501200120001500210D8B4EEEF04F0F1
:1009D800F0EF04F0FDEF04F002D8FDEF04F005009D
:1009E800FA6E0150FD6E0250FE6EF850FF6EFA501E
:1009F8001200120007500810D8B405EF05F007EFF1
:100A080005F014EF05F002D814EF05F00500FA6EB2
:100A18000750FD6E0850FE6EF850FF6EFA50120037
:100A2800120003500410D8B41CEF05F01EEF05F0B7
:100A38002BEF05F002D82BEF05F00500FA6E0350F6
:100A4800FD6E0450FE6EF850FF6EFA501200120050
:100A5800200EF66E0C0EF76E000EF86E0900F5CF3C
:100A680043F000EE01F0260EEE6AE806FDE1449040
:100A78004492000EF86E000143EF04F02E6E2EA093
:100A880002D08B8E01D08B9E2EA202D08B8C01D0EF
:100A98008B9C2EA402D08C8601D08C962EA602D0D8
:100AA8008B8A01D08B9A12001E0E1824D96EDA6A2E
:100AB800000EDA22FEEC05F0DF6E182A090E186027
:100AC80068EF05F06BEF05F0010E6CEF05F0000E16
:100AD800436E1200C6BA73EF05F075EF05F07CEFB0
:100AE80005F0060EC612000EC76E000EC56EC68A49
:100AF80012008C928C948B948C908B908B92899E04
:100B0800899C8D928D948D90899A1200C6BE8FEF24
:100B180005F093EF05F0276A272A94EF05F0276A76
:100B280027301200C7B49BEF05F09FEF05F0276A46
:100B3800272AA0EF05F0276A27301200C7BAA7EFC7
:100B480005F0ABEF05F0276A272AACEF05F0276A16
:100B58002730120030C02EF031C02FF0D2EC05F053
:100B6800120003EC06F0ADEC04F0BCEC05F012004A
:100B7800600ED36E040ED26E000E9B6E12002EC055
:100B880005F02FC006F012002EC001F02FC002F0B1
:100B980012002EC007F02FC008F012002EC041F03E
:100BA8002FC042F012002EC003F02FC004F0120034
:100BB8002EC009F02FC00AF01200000E186E000EA9
:100BC800436E12002E6E2EC0CAFF12002E6E2EC06B
:100BD800C8FF12001D50F2EC05F01200276E27C066
:100BE800C9FF120007EC06F01A6E120009EC06F0B5
:100BF800196E120007EC06F012009D861200D09EB6
:100C080012009E961200C9501200C8501200C582E8
:090C18001200C68812001200014E
:020000040020DA
:08000000FFFFFFFFFFFFFFFF00
:020000040030CA
:0E000000FF281F3CFFBF85FF0FC00FE00F4021
:00000001FF
