:0400000056EF00F0C7
:100008004582FACF2AF0FBCF2BF0D9CF2CF0DACFEC
:100018002DF0F2AC12EF00F014EF00F04CEF00F00E
:10002800A0A619EF00F01BEF00F031EF00F0A1A639
:1000380020EF00F022EF00F031EF00F002D82FEFB0
:1000480000F00500FA6E0950FD6E0A50FE6EF85079
:10005800FF6EFA5012004CEF00F09DA636EF00F04C
:1000680038EF00F04CEF00F09EA63DEF00F03FEFB8
:1000780000F04CEF00F002D84CEF00F00500FA6EEB
:100088004250FD6E4350FE6EF850FF6EFA5012005B
:100098002DC0DAFF2CC0D9FF2BC0FBFF2AC0FAFF06
:1000A8004592110033EF05F0000E3F6E010E3E6ED3
:1000B8003FBE68EF00F03F5009E10D0E3E5CD8A04E
:1000C80068EF00F06AEF00F06CEF00F04EEF03F01D
:1000D80084EC05F03E043F10D8A475EF00F077EFEC
:1000E80000F0A3EF00F017C032F02FC0D9FF30C0E6
:1000F800DAFFDFAE02D0328001D032902FC0D9FFB4
:1001080030C0DAFFDFAC02D0328201D032922FC089
:10011800D9FF30C0DAFFDFAA02D0328401D032948E
:100128002FC0D9FF30C0DAFFDFA802D0328601D055
:100138003296325049EC05F08C8243EF03F0020E00
:100148003E183F10D8A4ABEF00F0ADEF00F0D9EFA8
:1001580000F016C033F02FC0D9FF30C0DAFFDFA699
:1001680002D0338001D033902FC0D9FF30C0DAFFDE
:10017800DFA402D0338201D033922FC0D9FF30C020
:10018800DAFFDFA202D0338401D033942FC0D9FF25
:1001980030C0DAFFDFA002D0338601D03396335067
:1001A80049EC05F08C8443EF03F0030E3E183F1032
:1001B800D8A4E1EF00F0E3EF00F017EF01F015C06D
:1001C80034F020EE01F02F50D9263050DA22DFAE7D
:1001D80002D0348001D0349020EE01F02F50D9267F
:1001E8003050DA22DFAC02D0348201D0349220EED3
:1001F80001F02F50D9263050DA22DFA802D03484FB
:1002080001D0349420EE01F02F50D9263050DA2254
:10021800DFAA02D0348601D03496345049EC05F078
:100228008B8443EF03F0040E3E183F10D8A41FEF51
:1002380001F021EF01F055EF01F014C035F020EE88
:1002480001F02F50D9263050DA22DFA602D03580AF
:1002580001D0359020EE01F02F50D9263050DA2207
:10026800DFA402D0358201D0359220EE01F02F5064
:10027800D9263050DA22DFA202D0358401D0359455
:1002880020EE01F02F50D9263050DA22DFA002D01C
:10029800358601D03596355049EC05F08C8043EF12
:1002A80003F0050E3E183F10D8A45DEF01F05FEF94
:1002B80001F093EF01F013C036F020EE02F02F505A
:1002C800D9263050DA22DFAE02D0368001D03690FF
:1002D80020EE02F02F50D9263050DA22DFAC02D0BF
:1002E800368201D0369220EE02F02F50D9263050B7
:1002F800DA22DFAA02D0368401D0369420EE02F04A
:100308002F50D9263050DA22DFA802D0368601D005
:100318003696365049EC05F08B8043EF03F0060E15
:100328003E183F10D8A49BEF01F09DEF01F0D1EFEC
:1003380001F012C037F020EE02F02F50D9263050CD
:10034800DA22DFA602D0378001D0379020EE02F003
:100358002F50D9263050DA22DFA402D0378201D0BC
:10036800379220EE02F02F50D9263050DA22DFA241
:1003780002D0378401D0379420EE02F02F50D926CE
:100388003050DA22DFA002D0378601D037963750B6
:1003980049EC05F08B8243EF03F0070E3E183F103F
:1003A800D8A4D9EF01F0DBEF01F00FEF02F011C094
:1003B80038F020EE03F02F50D9263050DA22DFAE85
:1003C80002D0388001D0389020EE03F02F50D92683
:1003D8003050DA22DFAC02D0388201D0389220EED9
:1003E80003F02F50D9263050DA22DFAA02D0388401
:1003F80001D0389420EE03F02F50D9263050DA225D
:10040800DFA802D0388601D03896385049EC05F07C
:10041800898E43EF03F0080E3E183F10D8A417EF5B
:1004280002F019EF02F04DEF02F010C039F020EEA3
:1004380003F02F50D9263050DA22DFA602D03980B7
:1004480001D0399020EE03F02F50D9263050DA220F
:10045800DFA402D0398201D0399220EE03F02F5068
:10046800D9263050DA22DFA202D0398401D039945B
:1004780020EE03F02F50D9263050DA22DFA002D028
:10048800398601D03996395049EC05F0898C43EF0B
:1004980003F0090E3E183F10D8A455EF02F057EFAD
:1004A80002F08BEF02F00FC03AF020EE04F02F506C
:1004B800D9263050DA22DFAE02D03A8001D03A9005
:1004C80020EE04F02F50D9263050DA22DFAC02D0CB
:1004D8003A8201D03A9220EE04F02F50D9263050BB
:1004E800DA22DFAA02D03A8401D03A9420EE04F04E
:1004F8002F50D9263050DA22DFA802D03A8601D010
:100508003A963A5049EC05F08D8243EF03F00A0E13
:100518003E183F10D8A493EF02F095EF02F0C9EF10
:1005280002F00EC03BF020EE04F02F50D9263050D8
:10053800DA22DFA602D03B8001D03B9020EE04F007
:100548002F50D9263050DA22DFA402D03B8201D0C6
:100558003B9220EE04F02F50D9263050DA22DFA249
:1005680002D03B8401D03B9420EE04F02F50D926D2
:100578003050DA22DFA002D03B8601D03B963B50B8
:1005880049EC05F08D8443EF03F00B0E3E183F1045
:10059800D8A4D1EF02F0D3EF02F007EF03F00DC0BB
:1005A8003CF020EE05F02F50D9263050DA22DFAE8D
:1005B80002D03C8001D03C9020EE05F02F50D92687
:1005C8003050DA22DFAC02D03C8201D03C9220EEDF
:1005D80005F02F50D9263050DA22DFAA02D03C8409
:1005E80001D03C9420EE05F02F50D9263050DA2265
:1005F800DFA802D03C8601D03C963C5049EC05F07F
:100608008D8043EF03F00C0E3E183F10D8A40FEF77
:1006180003F011EF03F043EF03F00CC03DF020EEC0
:1006280005F02F50D9263050DA22DFA602D03D80BF
:1006380001D03D9020EE05F02F50D9263050DA2217
:10064800DFA402D03D8201D03D9220EE05F02F506C
:10065800D9263050DA22DFA202D03D8401D03D9461
:1006680020EE05F02F50D9263050DA22DFA002D034
:100678003D8601D03D963D5049EC05F0898A820EB1
:10068800316EDE0EE82EFED7312EFCD73E4A3F2AC9
:100698005CEF00F0120020EE06F02E50D9262F5005
:1006A800DA22DFA402D0898601D0899620EE06F0EE
:1006B8002E50D9262F50DA22DFA202D0898001D00D
:1006C800899020EE06F02E50D9262F50DA22DFA08E
:1006D80002D08C8E01D08C9E20EE07F02E50D926A9
:1006E8002F50DA22DFAE02D08C8C01D08C9C20EE09
:1006F80007F02E50D9262F50DA22DFAC02D08A829A
:1007080001D08A9220EE07F02E50D9262F50DA22F7
:10071800DFAA02D0898201D0899220EE07F02E50FC
:10072800D9262F50DA22DFA802D08C8A01D08C9AE1
:1007380020EE07F02E50D9262F50DA22DFA602D05D
:100748008C8801D08C9820EE07F02E50D9262F5097
:10075800DA22DFA402D0898401D0899412000CEC3B
:1007680006F00EEC06F01A6E9DEC05F0D8B0BFEF5F
:1007780003F0C1EF03F0C5EF03F0020E1C6EF1EFBA
:1007880003F0010E1C6EF1EF03F091EC05F0D8B008
:10079800D0EF03F0D2EF03F0D6EF03F0D7EC04F07C
:1007A800DAEF03F0EEEC04F012EC06F0000E1B6E2C
:1007B80006EF04F0A9EC05F0D8A0E5EF03F0E7EFA9
:1007C80003F0EDEF03F005EC05F0020E1B6E06EFEB
:1007D80004F01CEC05F0DAEF03F01C50286E296ACF
:1007E8002950000AD8B4FBEF03F006EF04F02850B4
:1007F800010AD8B4C9EF03F0030AD8B4DEEF03F056
:1008080006EF04F01BC01CF014EC06F012000BC03D
:1008180030F020EE07F02E50D9262F50DA22DFA232
:1008280002D0308E01D0309E20EE07F02E50D9260F
:100838002F50DA22DFA002D0308C01D0309C20EE7D
:1008480008F02E50D9262F50DA22DFAE02D0308A97
:1008580001D0309A20EE08F02E50D9262F50DA22F7
:10086800DFAC02D0308801D030983096309420EE3A
:1008780007F02E50D9262F50DA22DFAC02D0308272
:1008880001D03092309030C08AFF1200BCEC05F0E5
:10089800F28EF28C08EC06F08A8487EC04F0BE0E27
:1008A8002E6E0A0E2F6ED4EC05F0D00E2E6E0B0EA7
:1008B8002F6EDEEC05F04450D8A465EF04F067EF26
:1008C80004F069EF04F05FEF04F08A841E0E406EB6
:1008D800000E416E40C02FF041C030F058EC00F0DF
:1008E80040C02EF041C02FF04FEC03F040C02EF076
:1008F80041C02FF00BEC04F0000E446E8A945FEFB9
:1009080004F056EF00F0660E306E070E316EB5EC4F
:1009180005F075EC05F0820EF1EC05F07F0EEDECBC
:1009280005F02C0E2E6E0C0E2F6EE3EC05F0EA0E81
:100938002E6E0B0E2F6ECAEC05F0FA0E2E6E0B0EF5
:100948002F6ED4EC05F0020E2E6E0C0E2F6EDEEC20
:1009580005F02C0E2E6E0C0E2F6ECFEC05F012004B
:10096800000E8D6E000E8C6E000E896E000E8A6E63
:10097800000E8B6E000E966E100E926E090E936E20
:10098800180E946E000E956E000E0F013B6F000E50
:100998003A6F000E396F000E3C6F000E386F000E74
:1009A800616EF18E120005500610D8B4DEEF04F027
:1009B800E0EF04F0EDEF04F002D8EDEF04F00500ED
:1009C800FA6E0550FD6E0650FE6EF850FF6EFA5036
:1009D8001200120001500210D8B4F5EF04F0F7EF3E
:1009E80004F004EF05F002D804EF05F00500FA6EF4
:1009F8000150FD6E0250FE6EF850FF6EFA50120064
:100A0800120007500810D8B40CEF05F00EEF05F0EF
:100A18001BEF05F002D81BEF05F00500FA6E075032
:100A2800FD6E0850FE6EF850FF6EFA50120012006C
:100A380003500410D8B423EF05F025EF05F032EF8A
:100A480005F002D832EF05F00500FA6E0350FD6E8E
:100A58000450FE6EF850FF6EFA50120012002E0E6F
:100A6800F66E0C0EF76E000EF86E0900F5CF44F026
:100A780000EE01F0260EEE6AE806FDE1459045928B
:100A8800000EF86E00014AEF04F02E6E2EA002D080
:100A98008B8E01D08B9E2EA202D08B8C01D08B9C8A
:100AA8002EA402D08C8601D08C962EA602D08B8ADA
:100AB80001D08B9A12001E0E1824D96EDA6A000E25
:100AC800DA2205EC06F0DF6E182A090E18606FEFBF
:100AD80005F072EF05F0010E73EF05F0000E446E9D
:100AE8001200C6BA7AEF05F07CEF05F083EF05F047
:100AF800060EC612000EC76E000EC56EC68A12001C
:100B08008C928C948B948C908B908B92899E899CE0
:100B18008D928D948D90899A1200C6BE96EF05F03D
:100B28009AEF05F0276A272A9BEF05F0276A2730F6
:100B38001200C7B4A2EF05F0A6EF05F0276A272A2E
:100B4800A7EF05F0276A27301200C7BAAEEF05F005
:100B5800B2EF05F0276A272AB3EF05F0276A273096
:100B6800120030C02EF031C02FF0D9EC05F0120081
:100B78000AEC06F0B4EC04F0C3EC05F01200600EC9
:100B8800D36E040ED26E000E9B6E12002EC005F0BE
:100B98002FC006F012002EC001F02FC002F0120084
:100BA8002EC007F02FC008F012002EC042F02FC050
:100BB80043F012002EC003F02FC004F012002EC024
:100BC80009F02FC00AF01200000E186E000E446ED5
:100BD80012002E6E2EC0CAFF12002E6E2EC0C8FF45
:100BE80012001D50F9EC05F01200276E27C0C9FF4E
:100BF80012000EEC06F01A6E120010EC06F0196ED8
:100C080012000EEC06F012009D861200D09E120013
:100C18009E961200C9501200C8501200C5821200D8
:070C2800C688120012000152
:020000040020DA
:08000000FFFFFFFFFFFFFFFF00
:020000040030CA
:0E000000FF281F3CFFBF85FF0FC00FE00F4021
:00000001FF
