:020000040000FA
:0400000056EF00F0C7
:100008004482FACF2AF0FBCF2BF0D9CF2CF0DACFED
:100018002DF0F2AC12EF00F014EF00F04CEF00F00E
:10002800A0A619EF00F01BEF00F031EF00F0A1A639
:1000380020EF00F022EF00F031EF00F002D82FEFB0
:1000480000F00500FA6E0950FD6E0A50FE6EF85079
:10005800FF6EFA5012004CEF00F09DA636EF00F04C
:1000680038EF00F04CEF00F09EA63DEF00F03FEFB8
:1000780000F04CEF00F002D84CEF00F00500FA6EEB
:100088004150FD6E4250FE6EF850FF6EFA5012005D
:100098002DC0DAFF2CC0D9FF2BC0FBFF2AC0FAFF06
:1000A8004492110028EF05F0000E3E6E010E3D6EE1
:1000B80079EC05F03D043E10D8A465EF00F067EF39
:1000C80000F093EF00F01BC031F02FC0D9FF30C013
:1000D800DAFFDFAE02D0318001D031902FC0D9FFD6
:1000E80030C0DAFFDFAC02D0318201D031922FC0AC
:1000F800D9FF30C0DAFFDFAA02D0318401D03194B1
:100108002FC0D9FF30C0DAFFDFA802D0318601D076
:10011800319631503EEC05F08C8233EF03F0020E3D
:100128003D183E10D8A49BEF00F09DEF00F0C9EFFA
:1001380000F01AC032F02FC0D9FF30C0DAFFDFA6B6
:1001480002D0328001D032902FC0D9FF30C0DAFF00
:10015800DFA402D0328201D032922FC0D9FF30C042
:10016800DAFFDFA202D0328401D032942FC0D9FF47
:1001780030C0DAFFDFA002D0328601D0329632508A
:100188003EEC05F08C8433EF03F0030E3D183E106F
:10019800D8A4D1EF00F0D3EF00F007EF01F019C0B9
:1001A80033F020EE01F02F50D9263050DA22DFAE9E
:1001B80002D0338001D0339020EE01F02F50D926A1
:1001C8003050DA22DFAC02D0338201D0339220EEF5
:1001D80001F02F50D9263050DA22DFA802D033841C
:1001E80001D0339420EE01F02F50D9263050DA2276
:1001F800DFAA02D0338601D0339633503EEC05F0A7
:100208008B8433EF03F0040E3D183E10D8A40FEF93
:1002180001F011EF01F045EF01F018C034F020EEC5
:1002280001F02F50D9263050DA22DFA602D03480D0
:1002380001D0349020EE01F02F50D9263050DA2228
:10024800DFA402D0348201D0349220EE01F02F5086
:10025800D9263050DA22DFA202D0348401D0349477
:1002680020EE01F02F50D9263050DA22DFA002D03C
:10027800348601D0349634503EEC05F08C8033EF50
:1002880003F0050E3D183E10D8A44DEF01F04FEFD6
:1002980001F083EF01F017C035F020EE02F02F5087
:1002A800D9263050DA22DFAE02D0358001D0359021
:1002B80020EE02F02F50D9263050DA22DFAC02D0DF
:1002C800358201D0359220EE02F02F50D9263050D9
:1002D800DA22DFAA02D0358401D0359420EE02F06C
:1002E8002F50D9263050DA22DFA802D0358601D027
:1002F800359635503EEC05F08B8033EF03F0060E53
:100308003D183E10D8A48BEF01F08DEF01F0C1EF3E
:1003180001F016C036F020EE02F02F50D9263050EA
:10032800DA22DFA602D0368001D0369020EE02F025
:100338002F50D9263050DA22DFA402D0368201D0DD
:10034800369220EE02F02F50D9263050DA22DFA262
:1003580002D0368401D0369420EE02F02F50D926F0
:100368003050DA22DFA002D0368601D036963650D9
:100378003EEC05F08B8233EF03F0070E3D183E107C
:10038800D8A4C9EF01F0CBEF01F0FFEF01F015C0E1
:1003980037F020EE03F02F50D9263050DA22DFAEA6
:1003A80002D0378001D0379020EE03F02F50D926A5
:1003B8003050DA22DFAC02D0378201D0379220EEFB
:1003C80003F02F50D9263050DA22DFAA02D0378422
:1003D80001D0379420EE03F02F50D9263050DA227E
:1003E800DFA802D0378601D0379637503EEC05F0AB
:1003F800898E33EF03F0080E3D183E10D8A407EF9E
:1004080002F009EF02F03DEF02F014C038F020EEE0
:1004180003F02F50D9263050DA22DFA602D03880D8
:1004280001D0389020EE03F02F50D9263050DA2230
:10043800DFA402D0388201D0389220EE03F02F508A
:10044800D9263050DA22DFA202D0388401D038947D
:1004580020EE03F02F50D9263050DA22DFA002D048
:10046800388601D0389638503EEC05F0898C33EF49
:1004780003F0090E3D183E10D8A445EF02F047EFEF
:1004880002F07BEF02F013C039F020EE04F02F5099
:10049800D9263050DA22DFAE02D0398001D0399027
:1004A80020EE04F02F50D9263050DA22DFAC02D0EB
:1004B800398201D0399220EE04F02F50D9263050DD
:1004C800DA22DFAA02D0398401D0399420EE04F070
:1004D8002F50D9263050DA22DFA802D0398601D031
:1004E800399639503EEC05F08D8233EF03F00A0E51
:1004F8003D183E10D8A483EF02F085EF02F0B9EF63
:1005080002F012C03AF020EE04F02F50D9263050F5
:10051800DA22DFA602D03A8001D03A9020EE04F029
:100528002F50D9263050DA22DFA402D03A8201D0E7
:100538003A9220EE04F02F50D9263050DA22DFA26A
:1005480002D03A8401D03A9420EE04F02F50D926F4
:100558003050DA22DFA002D03A8601D03A963A50DB
:100568003EEC05F08D8433EF03F00B0E3D183E1082
:10057800D8A4C1EF02F0C3EF02F0F7EF02F011C008
:100588003BF020EE05F02F50D9263050DA22DFAEAE
:1005980002D03B8001D03B9020EE05F02F50D926A9
:1005A8003050DA22DFAC02D03B8201D03B9220EE01
:1005B80005F02F50D9263050DA22DFAA02D03B842A
:1005C80001D03B9420EE05F02F50D9263050DA2286
:1005D800DFA802D03B8601D03B963B503EEC05F0AD
:1005E8008D8033EF03F00C0E3D183E10D8A4FFEFBA
:1005F80002F001EF03F033EF03F010C03CF020EEFF
:1006080005F02F50D9263050DA22DFA602D03C80E0
:1006180001D03C9020EE05F02F50D9263050DA2238
:10062800DFA402D03C8201D03C9220EE05F02F508E
:10063800D9263050DA22DFA202D03C8401D03C9483
:1006480020EE05F02F50D9263050DA22DFA002D054
:100658003C8601D03C963C503EEC05F0898A3D4AE8
:100668003E2A3EBE41EF03F03E5009E10D0E3D5CCF
:10067800D8A041EF03F043EF03F05CEF00F0120065
:1006880020EE06F02E50D9262F50DA22DFA402D011
:10069800898601D0899620EE06F02E50D9262F5053
:1006A800DA22DFA202D0898001D0899020EE06F0FC
:1006B8002E50D9262F50DA22DFA002D08C8E01D0FE
:1006C8008C9E20EE07F02E50D9262F50DA22DFAE6E
:1006D80002D08C8C01D08C9C20EE07F02E50D926AD
:1006E8002F50DA22DFAC02D08A8201D08A9220EE23
:1006F80007F02E50D9262F50DA22DFAA02D089829D
:1007080001D0899220EE07F02E50D9262F50DA22F8
:10071800DFA802D08C8A01D08C9A20EE07F02E50E8
:10072800D9262F50DA22DFA602D08C8801D08C98E7
:1007380020EE07F02E50D9262F50DA22DFA402D05F
:10074800898401D08994120000EC06F002EC06F0CE
:100758000C6E92EC05F0D8B0B4EF03F0B6EF03F0EE
:10076800BAEF03F0020E0E6EE6EF03F0010E0E6E06
:10077800E6EF03F086EC05F0D8B0C5EF03F0C7EF5D
:1007880003F0CBEF03F0CCEC04F0CFEF03F0E3EC95
:1007980004F006EC06F0000E0D6EFBEF03F09EEC85
:1007A80005F0D8A0DAEF03F0DCEF03F0E2EF03F096
:1007B800FAEC04F0020E0D6EFBEF03F011EC05F0FD
:1007C800CFEF03F00E50286E296A2950000AD8B4DA
:1007D800F0EF03F0FBEF03F02850010AD8B4BEEFA6
:1007E80003F0030AD8B4D3EF03F0FBEF03F00DC016
:1007F8000EF008EC06F012000FC030F020EE07F003
:100808002E50D9262F50DA22DFA202D0308E01D006
:10081800309E20EE07F02E50D9262F50DA22DFA086
:1008280002D0308C01D0309C20EE08F02E50D92612
:100838002F50DA22DFAE02D0308A01D0309A20EE73
:1008480008F02E50D9262F50DA22DFAC02D030889B
:1008580001D030983096309420EE07F02E50D926EB
:100868002F50DA22DFAC02D0308201D030923090A3
:1008780030C08AFF1200B1EC05F0F28EF28CFCEC6D
:1008880005F08A847CEC04F0A80E2E6E0A0E2F6EFA
:10089800D0EC05F07E0E2E6E0B0E2F6EDAEC05F006
:1008A8004350D8A45AEF04F05CEF04F05EEF04F074
:1008B80054EF04F08A841E0E3F6E000E406E3FC057
:1008C8002FF040C030F058EC00F03FC02EF040C090
:1008D8002FF044EC03F03FC02EF040C02FF000ECA6
:1008E80004F0000E436E8A9454EF04F056EF00F0C3
:1008F800500E306E070E316EAAEC05F06AEC05F06A
:10090800820EE8EC05F07F0EE4EC05F0140E2E6E76
:100918000C0E2F6EDFEC05F0D80E2E6E0B0E2F6E20
:10092800C6EC05F0E80E2E6E0B0E2F6ED0EC05F01F
:10093800F00E2E6E0B0E2F6EDAEC05F0140E2E6EE6
:100948000C0E2F6ECBEC05F01200000E8D6E000E13
:100958008C6E000E896E000E8A6E000E8B6E000E75
:10096800966E100E926E090E936E180E946E000E0F
:10097800956E000E0F013B6F000E3A6F000E396F37
:10098800000E3C6F000E386F000E616EF18E120083
:1009980005500610D8B4D3EF04F0D5EF04F0E2EF19
:1009A80004F002D8E2EF04F00500FA6E0550FD6E7F
:1009B8000650FE6EF850FF6EFA50120012000150F9
:1009C8000210D8B4EAEF04F0ECEF04F0F9EF04F009
:1009D80002D8F9EF04F00500FA6E0150FD6E0250DE
:1009E800FE6EF850FF6EFA50120012000750081001
:1009F800D8B401EF05F003EF05F010EF05F002D8C9
:100A080010EF05F00500FA6E0750FD6E0850FE6EF7
:100A1800F850FF6EFA501200120003500410D8B4B8
:100A280018EF05F01AEF05F027EF05F002D827EFC9
:100A380005F00500FA6E0350FD6E0450FE6EF85086
:100A4800FF6EFA5012001200160EF66E0C0EF76EBC
:100A5800000EF86E0900F5CF43F000EE01F0260E07
:100A6800EE6AE806FDE144904492000EF86E00013B
:100A78003FEF04F02E6E2EA002D08B8E01D08B9EFD
:100A88002EA202D08B8C01D08B9C2EA402D08C86F7
:100A980001D08C962EA602D08B8A01D08B9A120098
:100AA8001E0E1C24D96EDA6A000EDA2202EC06F059
:100AB800DF6E1C2A090E1C6064EF05F067EF05F075
:100AC800010E68EF05F0000E436E1200C6BA6FEF14
:100AD80005F071EF05F078EF05F0360EC612800EBE
:100AE800C76E010EC56EC68A12008C928C948B94C8
:100AF8008C908B908B92899E899C8D928D948D90F1
:100B0800899A1200C6BE8BEF05F08FEF05F0276AB1
:100B1800272A90EF05F0276A27301200C7B497EF0D
:100B280005F09BEF05F0276A272A9CEF05F0276A56
:100B380027301200C7BAA3EF05F0A7EF05F0276A20
:100B4800272AA8EF05F0276A2730120030C02EF0B8
:100B580031C02FF0D5EC05F01200FEEC05F0A9EC41
:100B680004F0B8EC05F01200300ED36E040ED26E0D
:100B7800000E9B6E120004EC06F0000E1C6E000EB8
:100B8800436E12002EC005F02FC006F012002EC0D2
:100B980001F02FC002F012002EC007F02FC008F09D
:100BA80012002EC041F02FC042F012002EC003F0F8
:100BB8002FC004F012002EC009F02FC00AF0120056
:100BC8002E6E2EC0CAFF12002E6E2EC0C8FF120055
:100BD8001D50F0EC05F01200276E27C0C9FF120067
:100BE80002EC06F00C6E120004EC06F00B6E12001C
:100BF8009D861200D09E12009E961200C9501200C7
:0F0C0800C8501200C5821200C6881200120001E7
:020000040020DA
:08000000FFFFFFFFFFFFFFFF00
:020000040030CA
:0E000000FF281F3CFFBF85FF0FC00FE00F4021
:00000001FF
