:0400000056EF00F0C7
:100008004482FACF2AF0FBCF2BF0D9CF2CF0DACFED
:100018002DF0F2AC12EF00F014EF00F04CEF00F00E
:10002800A0A619EF00F01BEF00F031EF00F0A1A639
:1000380020EF00F022EF00F031EF00F002D82FEFB0
:1000480000F00500FA6E0950FD6E0A50FE6EF85079
:10005800FF6EFA5012004CEF00F09DA636EF00F04C
:1000680038EF00F04CEF00F09EA63DEF00F03FEFB8
:1000780000F04CEF00F002D84CEF00F00500FA6EEB
:100088004150FD6E4250FE6EF850FF6EFA5012005D
:100098002DC0DAFF2CC0D9FF2BC0FBFF2AC0FAFF06
:1000A8004492110066EF05F0000E3E6E010E3D6EA3
:1000B8003EBE68EF00F03E5009E10D0E3D5CD8A051
:1000C80068EF00F06AEF00F06CEF00F07BEF03F0F0
:1000D800B7EC05F0210EE82EFED700F03D043E10E7
:1000E800D8A479EF00F07BEF00F0ABEF00F017C079
:1000F80031F02FC0D9FF30C0DAFFDFAE02D0318037
:1001080001D031902FC0D9FF30C0DAFFDFAC02D068
:10011800318201D031922FC0D9FF30C0DAFFDFAA77
:1001280002D0318401D031942FC0D9FF30C0DAFF1A
:10013800DFA802D0318601D0319631507CEC05F031
:10014800210EE82EFED700F08C8277EF03F0020E26
:100158003D183E10D8A4B3EF00F0B5EF00F0E5EF7E
:1001680000F016C032F02FC0D9FF30C0DAFFDFA68A
:1001780002D0328001D032902FC0D9FF30C0DAFFD0
:10018800DFA402D0328201D032922FC0D9FF30C012
:10019800DAFFDFA202D0328401D032942FC0D9FF17
:1001A80030C0DAFFDFA002D0328601D0329632505A
:1001B8007CEC05F0210EE82EFED700F08C8477EF5A
:1001C80003F0030E3D183E10D8A4EDEF00F0EFEF5A
:1001D80000F027EF01F015C033F020EE01F02F50AA
:1001E800D9263050DA22DFAE02D0338001D03390E6
:1001F80020EE01F02F50D9263050DA22DFAC02D0A1
:10020800338201D0339220EE01F02F50D92630509E
:10021800DA22DFA802D0338401D0339420EE01F033
:100228002F50D9263050DA22DFAA02D0338601D0E7
:10023800339633507CEC05F0210EE82EFED700F003
:100248008B8477EF03F0040E3D183E10D8A42FEFEF
:1002580001F031EF01F069EF01F014C034F020EE45
:1002680001F02F50D9263050DA22DFA602D0348090
:1002780001D0349020EE01F02F50D9263050DA22E8
:10028800DFA402D0348201D0349220EE01F02F5046
:10029800D9263050DA22DFA202D0348401D0349437
:1002A80020EE01F02F50D9263050DA22DFA002D0FC
:1002B800348601D0349634507CEC05F0210EE82EBB
:1002C800FED700F08C8077EF03F0050E3D183E1046
:1002D800D8A471EF01F073EF01F0ABEF01F013C098
:1002E80035F020EE02F02F50D9263050DA22DFAE5A
:1002F80002D0358001D0359020EE02F02F50D9265B
:100308003050DA22DFAC02D0358201D0359220EEAF
:1003180002F02F50D9263050DA22DFAA02D03584D5
:1003280001D0359420EE02F02F50D9263050DA2231
:10033800DFA802D0358601D0359635507CEC05F023
:10034800210EE82EFED700F08B8077EF03F0060E23
:100358003D183E10D8A4B3EF01F0B5EF01F0EDEF72
:1003680001F012C036F020EE02F02F50D92630509E
:10037800DA22DFA602D0368001D0369020EE02F0D5
:100388002F50D9263050DA22DFA402D0368201D08D
:10039800369220EE02F02F50D9263050DA22DFA212
:1003A80002D0368401D0369420EE02F02F50D926A0
:1003B8003050DA22DFA002D0368601D03696365089
:1003C8007CEC05F0210EE82EFED700F08B8277EF4B
:1003D80003F0070E3D183E10D8A4F5EF01F0F7EF33
:1003E80001F02FEF02F011C037F020EE03F02F508C
:1003F800D9263050DA22DFAE02D0378001D03790CC
:1004080020EE03F02F50D9263050DA22DFAC02D08C
:10041800378201D0379220EE03F02F50D926305082
:10042800DA22DFAA02D0378401D0379420EE03F015
:100438002F50D9263050DA22DFA802D0378601D0D3
:10044800379637507CEC05F0210EE82EFED700F0E9
:10045800898E77EF03F0080E3D183E10D8A437EFC9
:1004680002F039EF02F071EF02F010C038F020EE20
:1004780003F02F50D9263050DA22DFA602D0388078
:1004880001D0389020EE03F02F50D9263050DA22D0
:10049800DFA402D0388201D0389220EE03F02F502A
:1004A800D9263050DA22DFA202D0388401D038941D
:1004B80020EE03F02F50D9263050DA22DFA002D0E8
:1004C800388601D0389638507CEC05F0210EE82E9D
:1004D800FED700F0898C77EF03F0090E3D183E1027
:1004E800D8A479EF02F07BEF02F0B3EF02F00FC06F
:1004F80039F020EE04F02F50D9263050DA22DFAE42
:1005080002D0398001D0399020EE04F02F50D9263E
:100518003050DA22DFAC02D0398201D0399220EE95
:1005280004F02F50D9263050DA22DFAA02D03984BD
:1005380001D0399420EE04F02F50D9263050DA2219
:10054800DFA802D0398601D0399639507CEC05F005
:10055800210EE82EFED700F08D8277EF03F00A0E09
:100568003D183E10D8A4BBEF02F0BDEF02F0F5EF46
:1005780002F00EC03AF020EE04F02F50D926305089
:10058800DA22DFA602D03A8001D03A9020EE04F0B9
:100598002F50D9263050DA22DFA402D03A8201D077
:1005A8003A9220EE04F02F50D9263050DA22DFA2FA
:1005B80002D03A8401D03A9420EE04F02F50D92684
:1005C8003050DA22DFA002D03A8601D03A963A506B
:1005D8007CEC05F0210EE82EFED700F08D8477EF35
:1005E80003F00B0E3D183E10D8A4FDEF02F0FFEF0C
:1005F80002F037EF03F00DC03BF020EE05F02F506E
:10060800D9263050DA22DFAE02D03B8001D03B90B1
:1006180020EE05F02F50D9263050DA22DFAC02D078
:100628003B8201D03B9220EE05F02F50D926305066
:10063800DA22DFAA02D03B8401D03B9420EE05F0F9
:100648002F50D9263050DA22DFA802D03B8601D0BD
:100658003B963B507CEC05F0210EE82EFED700F0CF
:100668008D8077EF03F00C0E3D183E10D8A43FEFB5
:1006780003F041EF03F077EF03F00CC03CF020EEFD
:1006880005F02F50D9263050DA22DFA602D03C8060
:1006980001D03C9020EE05F02F50D9263050DA22B8
:1006A800DFA402D03C8201D03C9220EE05F02F500E
:1006B800D9263050DA22DFA202D03C8401D03C9403
:1006C80020EE05F02F50D9263050DA22DFA002D0D4
:1006D8003C8601D03C963C507CEC05F0210EE82E7F
:1006E800FED700F0898A3D4A3E2A5CEF00F0210ED1
:1006F800E82EFED700F0B7EC05F0120020EE06F069
:100708002E50D9262F50DA22DFA402D0898601D0B4
:10071800899620EE06F02E50D9262F50DA22DFA235
:1007280002D0898001D0899020EE06F02E50D9267B
:100738002F50DA22DFA002D08C8E01D08C9E20EEC2
:1007480007F02E50D9262F50DA22DFAE02D08C8C3B
:1007580001D08C9C20EE07F02E50D9262F50DA229B
:10076800DFAC02D08A8201D08A9220EE07F02E50A8
:10077800D9262F50DA22DFAA02D0898201D08992A5
:1007880020EE07F02E50D9262F50DA22DFA802D00B
:100798008C8A01D08C9A20EE07F02E50D9262F5043
:1007A800DA22DFA602D08C8801D08C9820EE07F0E0
:1007B8002E50D9262F50DA22DFA402D0898401D006
:1007C800899412003FEC06F041EC06F01A6ED0EC6A
:1007D80005F0D8B0F2EF03F0F4EF03F0F8EF03F010
:1007E800020E1C6E24EF04F0010E1C6E24EF04F0C0
:1007F800C4EC05F0D8B003EF04F005EF04F009EFFE
:1008080004F00AEC05F00DEF04F021EC05F045ECDE
:1008180006F0000E1B6E39EF04F0DCEC05F0D8A0F2
:1008280018EF04F01AEF04F020EF04F038EC05F0AC
:10083800020E1B6E39EF04F04FEC05F00DEF04F0DB
:100848001C50286E296A2950000AD8B42EEF04F0EB
:1008580039EF04F02850010AD8B4FCEF03F0030A7A
:10086800D8B411EF04F039EF04F01BC01CF047ECCA
:1008780006F012000BC030F020EE07F02E50D926FB
:100888002F50DA22DFA202D0308E01D0309E20EE27
:1008980007F02E50D9262F50DA22DFA002D0308C54
:1008A80001D0309C20EE08F02E50D9262F50DA22A5
:1008B800DFAE02D0308A01D0309A20EE08F02E50F8
:1008C800D9262F50DA22DFAC02D0308801D03098F8
:1008D8003096309420EE07F02E50D9262F50DA2289
:1008E800DFAC02D0308201D03092309030C08AFF25
:1008F8001200EFEC05F0F28EF28C3BEC06F08A84E5
:10090800BAEC04F0240E2E6E0B0E2F6E07EC06F0D8
:10091800360E2E6E0C0E2F6E11EC06F04350D8A436
:1009280098EF04F09AEF04F09CEF04F092EF04F0D3
:100938008A841E0E3F6E000E406E3FC02FF040C0EE
:1009480030F058EC00F03FC02EF040C02FF082ECA1
:1009580003F03FC02EF040C02FF03EEC04F0000E34
:10096800436E8A9492EF04F056EF00F0CC0E306E8E
:10097800070E316EE8EC05F0A8EC05F0820E24ECC9
:1009880006F07F0E20EC06F0920E2E6E0C0E2F6EE7
:1009980016EC06F0500E2E6E0C0E2F6EFDEC05F0C8
:1009A800600E2E6E0C0E2F6E07EC06F0680E2E6E83
:1009B8000C0E2F6E11EC06F0920E2E6E0C0E2F6E92
:1009C80002EC06F01200000E8D6E000E8C6E000E0A
:1009D800896E000E8A6E000E8B6E000E966E100EDB
:1009E800926E090E936E180E946E000E956E000EA0
:1009F8000F013B6F000E3A6F000E396F000E3C6F0F
:100A0800000E386F000E616EF18E12000550061050
:100A1800D8B411EF05F013EF05F020EF05F002D878
:100A280020EF05F00500FA6E0550FD6E0650FE6ECB
:100A3800F850FF6EFA501200120001500210D8B49C
:100A480028EF05F02AEF05F037EF05F002D837EF69
:100A580005F00500FA6E0150FD6E0250FE6EF8506A
:100A6800FF6EFA501200120007500810D8B43FEF7A
:100A780005F041EF05F04EEF05F002D84EEF05F016
:100A88000500FA6E0750FD6E0850FE6EF850FF6EB6
:100A9800FA501200120003500410D8B456EF05F0B3
:100AA80058EF05F065EF05F002D865EF05F0050091
:100AB800FA6E0350FD6E0450FE6EF850FF6EFA5049
:100AC80012001200940EF66E0C0EF76E000EF86E01
:100AD8000900F5CF43F000EE01F0260EEE6AE806B5
:100AE800FDE144904492000EF86E00017DEF04F0A1
:100AF8002E6E2EA002D08B8E01D08B9E2EA202D0FD
:100B08008B8C01D08B9C2EA402D08C8601D08C9625
:100B18002EA602D08B8A01D08B9A12001E0E1824A2
:100B2800D96EDA6A000EDA2238EC06F0DF6E182A7F
:100B3800090E1860A2EF05F0A5EF05F0010EA6EF6B
:100B480005F0000E436E1200C6BAADEF05F0AFEF28
:100B580005F0B6EF05F0060EC612000EC76E000EC1
:100B6800C56EC68A12008C928C948B948C908B9054
:100B78008B92899E899C8D928D948D90899A120072
:100B8800C6BEC9EF05F0CDEF05F0276A272ACEEFDC
:100B980005F0276A27301200C7B4D5EF05F0D9EF62
:100BA80005F0276A272ADAEF05F0276A27301200AE
:100BB800C7BAE1EF05F0E5EF05F0276A272AE6EF67
:100BC80005F0276A2730120030C02EF031C02FF010
:100BD8000CEC06F012003DEC06F0E7EC04F0F6EC45
:100BE80005F01200600ED36E040ED26E000E9B6EDE
:100BF80012002EC005F02FC006F012002EC001F022
:100C08002FC002F012002EC007F02FC008F012000B
:100C18002EC041F02FC042F012002EC003F02FC0AA
:100C280004F012002EC009F02FC00AF01200000EC6
:100C3800186E000E436E12002E6E2EC0CAFF1200F0
:100C48002E6E2EC0C8FF12001D502CEC06F01200AC
:100C5800276E27C0C9FF120041EC06F01A6E120079
:100C680043EC06F0196E120041EC06F012009D8666
:100C78001200D09E12009E961200C9501200C85051
:0D0C88001200C5821200C688120012000181
:020000040020DA
:08000000FFFFFFFFFFFFFFFF00
:020000040030CA
:0E000000FF281F3CFFBF85FF0FC00FE00F4021
:00000001FF
