:020000040000FA
:040000005EEF00F0BF
:100008004982FACF31F0FBCF32F0E1CF33F0E2CFC3
:1000180034F0D9CF35F0DACF36F0F2AC16EF00F085
:1000280018EF00F050EF00F0A0A61DEF00F01FEF52
:1000380000F035EF00F0A1A624EF00F026EF00F065
:1000480035EF00F002D833EF00F00500FA6E2550C6
:10005800FD6E2650FE6EF850FF6EFA50120050EFFB
:1000680000F09DA63AEF00F03CEF00F050EF00F0F2
:100078009EA641EF00F043EF00F050EF00F002D8E9
:1000880050EF00F00500FA6E4750FD6E4850FE6EC6
:10009800F850FF6EFA50120036C0DAFF35C0D9FFAB
:1000A80034C0E2FF33C0E1FF32C0FBFF31C0FAFFCA
:0800B800499211001AEF10F04B
:10060000000000003F044010D8A409EF03F00BEFF6
:1006100003F0BBEF03F020EE06F04150D926425024
:10062000DA22000EDFB2010E376E20EE06F04150E6
:10063000D9264250DA22000EDFB4010E386E20EEC9
:1006400006F04150D9264250DA22000EDFB6010EE4
:10065000396E20EE06F04150D9264250DA22000EC3
:10066000DFB8010E3A6E20EE06F04150D926425016
:10067000DA22000EDFBA010E3B6E20EE06F041508A
:10068000D9264250DA22000EDFBC010E3C6E20EE6D
:1006900006F04150D9264250DA22000EDFBE010E8C
:1006A0003D6E20EE06F04150D9264250DA22DFB0EE
:1006B0005CEF03F05FEF03F0010E60EF03F0000E5C
:1006C0005CEC0FF020EE12F04150D9264250DA22B5
:1006D000000EDFB2010E376E20EE12F04150D92627
:1006E0004250DA22000EDFB4010E386E20EE12F016
:1006F0004150D9264250DA22000EDFB6010E396E83
:1007000020EE12F04150D9264250DA22000EDFB816
:10071000010E3A6E20EE12F04150D9264250DA22F4
:10072000000EDFBA010E3B6E20EE12F04150D926CA
:100730004250DA22000EDFBC010E3C6E20EE12F0B9
:100740004150D9264250DA22000EDFBE010E3D6E26
:1007500020EE12F04150D9264250DA22DFB0B3EF3A
:1007600003F0B6EF03F0010EB7EF03F0000E32EC2A
:100770000FF025EF0DF0020E3F184010D8A4C3EF84
:1007800003F0C5EF03F075EF04F020EE05F04150E3
:10079000D9264250DA22000EDFB2010E376E20EE6B
:1007A00005F04150D9264250DA22000EDFB4010E86
:1007B000386E20EE05F04150D9264250DA22000E64
:1007C000DFB6010E396E20EE05F04150D9264250B9
:1007D000DA22000EDFB8010E3A6E20EE05F041502D
:1007E000D9264250DA22000EDFBA010E3B6E20EE0F
:1007F00005F04150D9264250DA22000EDFBC010E2E
:100800003C6E20EE05F04150D9264250DA22000E0F
:10081000DFBE010E3D6E20EE05F04150D92642505C
:10082000DA22DFB016EF04F019EF04F0010E1AEF30
:1008300004F0000E5CEC0FF020EE11F04150D926D0
:100840004250DA22000EDFB2010E376E20EE11F0B8
:100850004150D9264250DA22000EDFB4010E386E24
:1008600020EE11F04150D9264250DA22000EDFB6B8
:10087000010E396E20EE11F04150D9264250DA2295
:10088000000EDFB8010E3A6E20EE11F04150D9266D
:100890004250DA22000EDFBA010E3B6E20EE11F05C
:1008A0004150D9264250DA22000EDFBC010E3C6EC8
:1008B00020EE11F04150D9264250DA22000EDFBE60
:1008C000010E3D6E20EE11F04150D9264250DA2241
:1008D000DFB06DEF04F070EF04F0010E71EF04F083
:1008E000000E32EC0FF025EF0DF0030E3F18401014
:1008F000D8A47DEF04F07FEF04F02FEF05F020EE99
:1009000004F04150D9264250DA22000EDFB2010E27
:10091000376E20EE04F04150D9264250DA22000E04
:10092000DFB4010E386E20EE04F04150D92642505B
:10093000DA22000EDFB6010E396E20EE04F04150CF
:10094000D9264250DA22000EDFB8010E3A6E20EEB0
:1009500004F04150D9264250DA22000EDFBA010ECF
:100960003B6E20EE04F04150D9264250DA22000EB0
:10097000DFBC010E3C6E20EE04F04150D9264250FF
:10098000DA22000EDFBE010E3D6E20EE04F0415073
:10099000D9264250DA22DFB0D0EF04F0D3EF04F0D2
:1009A000010ED4EF04F0000E5CEC0FF020EE10F01E
:1009B0004150D9264250DA22000EDFB2010E376EC6
:1009C00020EE10F04150D9264250DA22000EDFB45A
:1009D000010E386E20EE10F04150D9264250DA2236
:1009E000000EDFB6010E396E20EE10F04150D92610
:1009F0004250DA22000EDFB8010E3A6E20EE10F0FF
:100A00004150D9264250DA22000EDFBA010E3B6E69
:100A100020EE10F04150D9264250DA22000EDFBC01
:100A2000010E3C6E20EE10F04150D9264250DA22E1
:100A3000000EDFBE010E3D6E20EE10F04150D926B3
:100A40004250DA22DFB027EF05F02AEF05F0010E61
:100A50002BEF05F0000E32EC0FF025EF0DF0040E39
:100A60003F184010D8A437EF05F039EF05F0E9EF53
:100A700005F020EE03F04150D9264250DA22000E54
:100A8000DFB2010E376E20EE03F04150D9264250FE
:100A9000DA22000EDFB4010E386E20EE03F0415072
:100AA000D9264250DA22000EDFB6010E396E20EE52
:100AB00003F04150D9264250DA22000EDFB8010E71
:100AC0003A6E20EE03F04150D9264250DA22000E51
:100AD000DFBA010E3B6E20EE03F04150D9264250A2
:100AE000DA22000EDFBC010E3C6E20EE03F0415016
:100AF000D9264250DA22000EDFBE010E3D6E20EEF6
:100B000003F04150D9264250DA22DFB08AEF05F0D7
:100B10008DEF05F0010E8EEF05F0000E5CEC0FF08E
:100B200020EE0FF04150D9264250DA22000EDFB2FB
:100B3000010E376E20EE0FF04150D9264250DA22D6
:100B4000000EDFB4010E386E20EE0FF04150D926B2
:100B50004250DA22000EDFB6010E396E20EE0FF0A1
:100B60004150D9264250DA22000EDFB8010E3A6E0B
:100B700020EE0FF04150D9264250DA22000EDFBAA3
:100B8000010E3B6E20EE0FF04150D9264250DA2282
:100B9000000EDFBC010E3C6E20EE12F04150D92653
:100BA0004250DA22000EDFBE010E3D6E20EE0FF045
:100BB0004150D9264250DA22DFB0E1EF05F0E4EFF0
:100BC00005F0010EE5EF05F0000E32EC0FF025EF19
:100BD0000DF0050E3F184010D8A4F1EF05F0F3EF2B
:100BE00005F0A3EF06F020EE02F04150D926425066
:100BF000DA22000EDFB2010E376E20EE02F0415015
:100C0000D9264250DA22000EDFB4010E386E20EEF3
:100C100002F04150D9264250DA22000EDFB6010E12
:100C2000396E20EE02F04150D9264250DA22000EF1
:100C3000DFB8010E3A6E20EE02F04150D926425044
:100C4000DA22000EDFBA010E3B6E20EE02F04150B8
:100C5000D9264250DA22000EDFBC010E3C6E20EE97
:100C600002F04150D9264250DA22000EDFBE010EBA
:100C70003D6E20EE02F04150D9264250DA22DFB01C
:100C800044EF06F047EF06F0010E48EF06F0000EC5
:100C90005CEC0FF020EE0EF04150D9264250DA22E3
:100CA000000EDFB2010E376E20EE0EF04150D92655
:100CB0004250DA22000EDFB4010E386E20EE0EF044
:100CC0004150D9264250DA22000EDFB6010E396EAD
:100CD00020EE0EF04150D9264250DA22000EDFB845
:100CE000010E3A6E20EE0EF04150D9264250DA2223
:100CF000000EDFBA010E3B6E20EE0EF04150D926F9
:100D00004250DA22000EDFBC010E3C6E20EE0EF0E7
:100D10004150D9264250DA22000EDFBE010E3D6E50
:100D200020EE0EF04150D9264250DA22DFB09BEF80
:100D300006F09EEF06F0010E9FEF06F0000E32EC7B
:100D40000FF025EF0DF0060E3F184010D8A4ABEFC2
:100D500006F0ADEF06F05DEF07F020EE01F0415038
:100D6000D9264250DA22000EDFB2010E376E20EE95
:100D700001F04150D9264250DA22000EDFB4010EB4
:100D8000386E20EE01F04150D9264250DA22000E92
:100D9000DFB6010E396E20EE01F04150D9264250E7
:100DA000DA22000EDFB8010E3A6E20EE01F041505B
:100DB000D9264250DA22000EDFBA010E3B6E20EE39
:100DC00001F04150D9264250DA22000EDFBC010E5C
:100DD0003C6E20EE01F04150D9264250DA22000E3E
:100DE000DFBE010E3D6E20EE01F04150D92642508B
:100DF000DA22DFB0FEEF06F001EF07F0010E02EF9E
:100E000007F0000E5CEC0FF020EE0DF04150D926FB
:100E10004250DA22000EDFB2010E376E20EE0DF0E6
:100E20004150D9264250DA22000EDFB4010E386E4E
:100E300020EE0DF04150D9264250DA22000EDFB6E6
:100E4000010E396E20EE0DF04150D9264250DA22C3
:100E5000000EDFB8010E3A6E20EE0DF04150D9269B
:100E60004250DA22000EDFBA010E3B6E20EE0DF08A
:100E70004150D9264250DA22000EDFBC010E3C6EF2
:100E800020EE0DF04150D9264250DA22000EDFBE8E
:100E9000010E3D6E20EE0DF04150D9264250DA226F
:100EA000DFB055EF07F058EF07F0010E59EF07F0EC
:100EB000000E32EC0FF025EF0DF0070E3F1840103A
:100EC000D8A465EF07F067EF07F017EF08F020EE02
:100ED0000CF04150D9264250DA22000EDFB2010E4A
:100EE000376E20EE0CF04150D9264250DA22000E27
:100EF000DFB4010E386E20EE0CF04150D92642507E
:100F0000DA22000EDFB6010E396E20EE0CF04150F1
:100F1000D9264250DA22000EDFB8010E3A6E20EEDA
:100F20000CF04150D9264250DA22000EDFBA010EF1
:100F30003B6E20EE0CF04150D9264250DA22000ED2
:100F4000DFBC010E3C6E20EE0CF04150D926425021
:100F5000DA22000EDFBE010E3D6E20EE0CF0415095
:100F6000D9264250DA22DFB0B8EF07F0BBEF07F026
:100F7000010EBCEF07F0000E5CEC0FF020EE18F055
:100F80004150D9264250DA22000EDFB2010E376EF0
:100F900020EE18F04150D9264250DA22000EDFB47C
:100FA000010E386E20EE18F04150D9264250DA2258
:100FB000000EDFB6010E396E20EE18F04150D92632
:100FC0004250DA22000EDFB8010E3A6E20EE18F021
:100FD0004150D9264250DA22000EDFBA010E3B6E94
:100FE00020EE18F04150D9264250DA22000EDFBC24
:100FF000010E3C6E20EE18F04150D9264250DA2204
:10100000000EDFBE010E3D6E20EE18F04150D926D5
:101010004250DA22DFB00FEF08F012EF08F0010EB5
:1010200013EF08F0000E32EC0FF025EF0DF0080E74
:101030003F184010D8A41FEF08F021EF08F0D1EFBF
:1010400008F020EE0BF04150D9264250DA22000E73
:10105000DFB2010E376E20EE0BF04150D926425020
:10106000DA22000EDFB4010E386E20EE0BF0415094
:10107000D9264250DA22000EDFB6010E396E20EE7C
:101080000BF04150D9264250DA22000EDFB8010E93
:101090003A6E20EE0BF04150D9264250DA22000E73
:1010A000DFBA010E3B6E20EE0BF04150D9264250C4
:1010B000DA22000EDFBC010E3C6E20EE0BF0415038
:1010C000D9264250DA22000EDFBE010E3D6E20EE20
:1010D0000BF04150D9264250DA22DFB072EF08F00F
:1010E00075EF08F0010E76EF08F0000E5CEC0FF0E3
:1010F00020EE17F04150D9264250DA22000EDFB21E
:10110000010E376E20EE17F04150D9264250DA22F8
:10111000000EDFB4010E386E20EE17F04150D926D4
:101120004250DA22000EDFB6010E396E20EE17F0C3
:101130004150D9264250DA22000EDFB8010E3A6E35
:1011400020EE17F04150D9264250DA22000EDFBAC5
:10115000010E3B6E20EE17F04150D9264250DA22A4
:10116000000EDFBC010E3C6E20EE17F04150D92678
:101170004250DA22000EDFBE010E3D6E20EE17F067
:101180004150D9264250DA22DFB0C9EF08F0CCEF47
:1011900008F0010ECDEF08F0000E32EC0FF025EF55
:1011A0000DF0090E3F184010D8A4D9EF08F0DBEF7E
:1011B00008F08BEF09F020EE0AF04150D92642509A
:1011C000DA22000EDFB2010E376E20EE0AF0415037
:1011D000D9264250DA22000EDFB4010E386E20EE1E
:1011E0000AF04150D9264250DA22000EDFB6010E35
:1011F000396E20EE0AF04150D9264250DA22000E14
:10120000DFB8010E3A6E20EE0AF04150D926425066
:10121000DA22000EDFBA010E3B6E20EE0AF04150DA
:10122000D9264250DA22000EDFBC010E3C6E20EEC1
:101230000AF04150D9264250DA22000EDFBE010EDC
:101240003D6E20EE0AF04150D9264250DA22DFB03E
:101250002CEF09F02FEF09F0010E30EF09F0000E2E
:101260005CEC0FF020EE16F04150D9264250DA2205
:10127000000EDFB2010E376E20EE16F04150D92677
:101280004250DA22000EDFB4010E386E20EE16F066
:101290004150D9264250DA22000EDFB6010E396ED7
:1012A00020EE16F04150D9264250DA22000EDFB867
:1012B000010E3A6E20EE16F04150D9264250DA2245
:1012C000000EDFBA010E3B6E20EE16F04150D9261B
:1012D0004250DA22000EDFBC010E3C6E20EE16F00A
:1012E0004150D9264250DA22000EDFBE010E3D6E7B
:1012F00020EE16F04150D9264250DA22DFB083EFBB
:1013000009F086EF09F0010E87EF09F0000E32ECCC
:101310000FF025EF0DF00A0E3F184010D8A493EF00
:1013200009F095EF09F045EF0AF020EE09F0415081
:10133000D9264250DA22000EDFB2010E376E20EEBF
:1013400009F04150D9264250DA22000EDFB4010ED6
:10135000386E20EE09F04150D9264250DA22000EB4
:10136000DFB6010E396E20EE09F04150D926425009
:10137000DA22000EDFB8010E3A6E20EE09F041507D
:10138000D9264250DA22000EDFBA010E3B6E20EE63
:1013900009F04150D9264250DA22000EDFBC010E7E
:1013A0003C6E20EE09F04150D9264250DA22000E60
:1013B000DFBE010E3D6E20EE09F04150D9264250AD
:1013C000DA22DFB0E6EF09F0E9EF09F0010EEAEF0B
:1013D00009F0000E5CEC0FF020EE15F04150D9261C
:1013E0004250DA22000EDFB2010E376E20EE15F009
:1013F0004150D9264250DA22000EDFB4010E386E79
:1014000020EE15F04150D9264250DA22000EDFB608
:10141000010E396E20EE15F04150D9264250DA22E5
:10142000000EDFB8010E3A6E20EE15F04150D926BD
:101430004250DA22000EDFBA010E3B6E20EE15F0AC
:101440004150D9264250DA22000EDFBC010E3C6E1C
:1014500020EE15F04150D9264250DA22000EDFBEB0
:10146000010E3D6E20EE15F04150D9264250DA2291
:10147000DFB03DEF0AF040EF0AF0010E41EF0AF055
:10148000000E32EC0FF025EF0DF00B0E3F18401060
:10149000D8A44DEF0AF04FEF0AF0FFEF0AF020EE6C
:1014A00008F04150D9264250DA22000EDFB2010E78
:1014B000376E20EE08F04150D9264250DA22000E55
:1014C000DFB4010E386E20EE08F04150D9264250AC
:1014D000DA22000EDFB6010E396E20EE08F0415020
:1014E000D9264250DA22000EDFB8010E3A6E20EE05
:1014F00008F04150D9264250DA22000EDFBA010E20
:101500003B6E20EE08F04150D9264250DA22000E00
:10151000DFBC010E3C6E20EE08F04150D92642504F
:10152000DA22000EDFBE010E3D6E20EE08F04150C3
:10153000D9264250DA22DFB0A0EF0AF0A3EF0AF07A
:10154000010EA4EF0AF0000E5CEC0FF020EE14F098
:101550004150D9264250DA22000EDFB2010E376E1A
:1015600020EE14F04150D9264250DA22000EDFB4AA
:10157000010E386E20EE14F04150D9264250DA2286
:10158000000EDFB6010E396E20EE14F04150D92660
:101590004250DA22000EDFB8010E3A6E20EE14F04F
:1015A0004150D9264250DA22000EDFBA010E3B6EBE
:1015B00020EE14F04150D9264250DA22000EDFBC52
:1015C000010E3C6E20EE14F04150D9264250DA2232
:1015D000000EDFBE010E3D6E20EE14F04150D92604
:1015E0004250DA22DFB0F7EF0AF0FAEF0AF0010E0C
:1015F000FBEF0AF0000E32EC0FF025EF0DF00C0EB1
:101600003F184010D8A407EF0BF009EF0BF0B9EF2B
:101610000BF020EE07F04150D9264250DA22000E9E
:10162000DFB2010E376E20EE07F04150D92642504E
:10163000DA22000EDFB4010E386E20EE07F04150C2
:10164000D9264250DA22000EDFB6010E396E20EEA6
:1016500007F04150D9264250DA22000EDFB8010EC1
:101660003A6E20EE07F04150D9264250DA22000EA1
:10167000DFBA010E3B6E20EE07F04150D9264250F2
:10168000DA22000EDFBC010E3C6E20EE07F0415066
:10169000D9264250DA22000EDFBE010E3D6E20EE4A
:1016A00007F04150D9264250DA22DFB05AEF0BF052
:1016B0005DEF0BF0010E5EEF0BF0000E5CEC0FF037
:1016C00020EE13F04150D9264250DA22000EDFB24C
:1016D000010E376E20EE13F04150D9264250DA2227
:1016E000000EDFB4010E386E20EE13F04150D92603
:1016F0004250DA22000EDFB6010E396E20EE13F0F2
:101700004150D9264250DA22000EDFB8010E3A6E5F
:1017100020EE13F04150D9264250DA22000EDFBAF3
:10172000010E3B6E20EE13F04150D9264250DA22D2
:10173000000EDFBC010E3C6E20EE13F04150D926A6
:101740004250DA22000EDFBE010E3D6E20EE13F095
:101750004150D9264250DA22DFB0B1EF0BF0B4EF9E
:101760000BF0010EB5EF0BF0000E32EC0FF025EF91
:101770000DF00D0E3F184010D8A4C1EF0BF0C3EFD1
:101780000BF014EF0CF020EE1CF04150D926425023
:10179000DA22000EDFB2010E376E20EE1CF041504F
:1017A000D9264250DA22000EDFB4010E386E20EE48
:1017B0001CF04150D9264250DA22000EDFB6010E4D
:1017C000396E20EE1CF04150D9264250DA22000E2C
:1017D000DFB8010E3A6E20EE1CF04150D92642507F
:1017E000DA22000EDFBA010E3B6E20EE1CF04150F3
:1017F000D9264250DA22000EDFBC010E3C6E000EEC
:101800003D6E20EE1CF04150D9264250DA22DFB066
:101810000CEF0CF00FEF0CF0010E10EF0CF0000EBF
:1018200008EC0FF025EF0DF00E0E3F184010D8A475
:101830001CEF0CF01EEF0CF06FEF0CF020EE1BF025
:101840004150D9264250DA22000EDFB2010E376E27
:1018500020EE1BF04150D9264250DA22000EDFB4B0
:10186000010E386E20EE1BF04150D9264250DA228C
:10187000000EDFB6010E396E20EE1BF04150D92666
:101880004250DA22000EDFB8010E3A6E20EE1BF055
:101890004150D9264250DA22000EDFBA010E3B6ECB
:1018A00020EE1BF04150D9264250DA22000EDFBC58
:1018B000010E3C6E000E3D6E20EE1BF04150D9260D
:1018C0004250DA22DFB067EF0CF06AEF0CF0010E45
:1018D0006BEF0CF0000E08EC0FF025EF0DF00F0E83
:1018E0003F184010D8A477EF0CF079EF0CF0CAEF56
:1018F0000CF020EE1AF04150D9264250DA22000EA8
:10190000DFB2010E376E20EE1AF04150D926425058
:10191000DA22000EDFB4010E386E20EE1AF04150CC
:10192000D9264250DA22000EDFB6010E396E20EEC3
:101930001AF04150D9264250DA22000EDFB8010ECB
:101940003A6E20EE1AF04150D9264250DA22000EAB
:10195000DFBA010E3B6E20EE1AF04150D9264250FC
:10196000DA22000EDFBC010E3C6E000E3D6E20EE52
:101970001AF04150D9264250DA22DFB0C2EF0CF003
:10198000C5EF0CF0010EC6EF0CF0000E08EC0FF0E6
:1019900025EF0DF0100E3F184010D8A4D2EF0CF038
:1019A000D4EF0CF025EF0DF020EE19F04150D926C0
:1019B0004250DA22000EDFB2010E376E20EE19F02F
:1019C0004150D9264250DA22000EDFB4010E386EA3
:1019D00020EE19F04150D9264250DA22000EDFB62F
:1019E000010E396E20EE19F04150D9264250DA220C
:1019F000000EDFB8010E3A6E20EE19F04150D926E4
:101A00004250DA22000EDFBA010E3B6E20EE19F0D2
:101A10004150D9264250DA22000EDFBC010E3C6E46
:101A2000000E3D6E20EE19F04150D9264250DA22C8
:101A3000DFB01DEF0DF020EF0DF0010E21EF0DF0E6
:101A4000000E08EC0FF025EF0DF0120037043810EF
:101A5000D8B42DEF0DF02FEF0DF039EF0DF0090E8A
:101A600037183810D8A437EF0DF039EF0DF03EEFEE
:101A70000DF0899C899E8C90EBEF0DF0020E3718CB
:101A80003810D8B446EF0DF048EF0DF052EF0DF0DE
:101A90000A0E37183810D8A450EF0DF052EF0DF0A1
:101AA00057EF0DF0898C899E8C90EBEF0DF0030EB3
:101AB00037183810D8B45FEF0DF061EF0DF06BEF11
:101AC0000DF00B0E37183810D8A469EF0DF06BEF3E
:101AD0000DF070EF0DF0899C898E8C90EBEF0DF07E
:101AE000040E37183810D8B478EF0DF07AEF0DF0F7
:101AF00084EF0DF00C0E37183810D8A482EF0DF0DB
:101B000084EF0DF089EF0DF0898C898E8C90EBEFCE
:101B10000DF0050E37183810D8B491EF0DF093EF93
:101B20000DF09DEF0DF00D0E37183810D8A49BEF77
:101B30000DF09DEF0DF0A2EF0DF0899C899E8C8039
:101B4000EBEF0DF0060E37183810D8B4AAEF0DF0F1
:101B5000ACEF0DF0B6EF0DF00E0E37183810D8A41C
:101B6000B4EF0DF0B6EF0DF0BBEF0DF0898C899E50
:101B70008C80EBEF0DF0070E37183810D8B4C3EF98
:101B80000DF0C5EF0DF0CFEF0DF00F0E3718381038
:101B9000D8A4CDEF0DF0CFEF0DF0D4EF0DF0899C70
:101BA000898E8C80EBEF0DF0080E37183810D8B402
:101BB000DCEF0DF0DEEF0DF0E8EF0DF0100E371852
:101BC0003810D8A4E6EF0DF0E8EF0DF0EBEF0DF0D4
:101BD000898C898E8C8038BEFBEF0DF0385007E180
:101BE000090E375CD8B0F7EF0DF0FBEF0DF0396A56
:101BF000392AFCEF0DF0396A39468C503918FD0B43
:101C000039188C6E89961200B1EC10F0B3EC10F01C
:101C1000296E48EC10F0D8B010EF0EF012EF0EF075
:101C200016EF0EF0020E2B6E42EF0EF0010E2B6E31
:101C300042EF0EF03CEC10F0D8B021EF0EF023EFA5
:101C40000EF027EF0EF0A9EC0FF02BEF0EF0C0EC2A
:101C50000FF0B7EC10F0000E2A6E57EF0EF054ECB8
:101C600010F0D8A036EF0EF038EF0EF03EEF0EF089
:101C7000D7EC0FF0020E2A6E57EF0EF0EEEC0FF0DD
:101C80002BEF0EF02B502F6E306A3050000AD8B474
:101C90004CEF0EF057EF0EF02F50010AD8B41AEFA8
:101CA0000EF0030AD8B42FEF0EF057EF0EF02AC053
:101CB0002BF0B9EC10F0120067EC10F0F28EF28C01
:101CC000ABEC10F0DBEC0EF04C0E376E1D0E386EE8
:101CD0007FEC10F00A0E376E200E386E89EC10F093
:101CE000000E466E010E456E600E436E000E446E91
:101CF000ADEC10F045C03FF046C040F043C041F0AD
:101D000044C042F002EC03F045C037F046C038F062
:101D100026EC0DF0454A462A46BE98EF0EF0465096
:101D200009E1110E455CD8A098EF0EF09AEF0EF085
:101D30009EEF0EF0000E466E010E456E290EE82E47
:101D4000FED700D074EF0EF05EEF00F0010E2724F6
:101D5000D96EDA6A000EDA22B3EC10F0DF6E272AB1
:101D60001B0E2764B6EF0EF0B8EF0EF0DAEF0EF0B0
:101D7000000E2E6E000E2D6E010E2D24D96E000E5B
:101D80002E20DA6E600E2D24E16E000E2E20E26E03
:101D9000DFCFE7FF2D4A2E2A2EBED8EF0EF02E50B1
:101DA00009E11C0E2D5CD8A0D8EF0EF0DAEF0EF092
:101DB000BCEF0EF01200080E396E1C0E3A6E60EC8D
:101DC00010F02DEC10F0260E97EC10F07F0E93EC37
:101DD00010F0760E376E210E386E8EEC10F0360E47
:101DE000376E210E386E75EC10F0460E376E210EF0
:101DF000386E7FEC10F04E0E376E210E386E89EC87
:101E000010F0760E376E210E386E7AEC10F012005C
:101E10003E6E3EB002D08B9001D08B8037B002D0A6
:101E20008B9E01D08B8E38B002D08B9201D08B82EA
:101E300039B002D08B9C01D08B8C3AB002D08B94FD
:101E400001D08B843BB002D08B9A01D08B8A3CB0FE
:101E500002D08C9601D08C863DB002D08C9401D0FB
:101E60008C8412003E6E3EB002D08A9201D08A82EB
:101E700037B002D08D9201D08D8238B002D08A90D6
:101E800001D08A8039B002D08D9401D08D843AB0CF
:101E900002D08C9E01D08C8E3BB002D08C9C01D0A5
:101EA0008C8C3CB002D08C9A01D08C8A3DB002D090
:101EB0008C9801D08C8812003E6E3EB002D08A9E73
:101EC00001D08A8E37B002D08A9C01D08A8C38B07B
:101ED00002D08A9A01D08A8A39B002D08A9801D079
:101EE0008A883AB002D08A9601D08A863BB002D066
:101EF000899A01D0898A3CB002D08A9401D08A8420
:101F00003DB002D08D9001D08D801200000E8D6EFC
:101F1000000E8C6E000E896E000E8A6E000E8B6EA7
:101F2000000E966E130E926E000E936E180E946E47
:101F3000000E956E000E0F013B6F000E3A6F000E03
:101F4000396F000E3C6F030E386F000E616EF18E1C
:101F5000120021502210D8B4B0EF0FF0B2EF0FF002
:101F6000BFEF0FF002D8BFEF0FF00500FA6E21505F
:101F7000FD6E2250FE6EF850FF6EFA5012001200F5
:101F80001D501E10D8B4C7EF0FF0C9EF0FF0D6EFF9
:101F90000FF002D8D6EF0FF00500FA6E1D50FD6E5F
:101FA0001E50FE6EF850FF6EFA50120012002350C1
:101FB0002410D8B4DEEF0FF0E0EF0FF0EDEF0FF0EC
:101FC00002D8EDEF0FF00500FA6E2350FD6E24509D
:101FD000FE6EF850FF6EFA50120012001F502010D3
:101FE000D8B4F5EF0FF0F7EF0FF004EF10F002D8D0
:101FF00004EF10F00500FA6E1F50FD6E2050FE6ECB
:10200000F850FF6EFA5012001200000E276E89B4CD
:102010000CEF10F00FEF10F0010E10EF10F0000EAB
:10202000FF0A2D6E2D462D4689502D18FB0B2D18BD
:10203000896E120000EE60F01C0EEE6AE806FDE10B
:1020400000EE01F02C0EEE6AE806FDE1499049929F
:10205000000EF86E00015CEF0EF0C6BA32EF10F021
:1020600034EF10F03BEF10F0360EC612800EC76E44
:10207000010EC56EC68A1200C6BE41EF10F045EFD4
:1020800010F02D6A2D2A46EF10F02D6A2D30120027
:10209000C7B44DEF10F051EF10F02D6A2D2A52EF1A
:1020A00010F02D6A2D301200C7BA59EF10F05DEF15
:1020B00010F02D6A2D2A5EEF10F02D6A2D301200DF
:1020C00039C037F03AC038F084EC10F01200AFECB1
:1020D00010F086EC0FF06EEC10F01200400ED36E94
:1020E000040ED26E000E9B6E120037C021F038C075
:1020F00022F0120037C01DF038C01EF0120037C0A9
:1021000023F038C024F0120037C047F038C048F040
:10211000120037C01FF038C020F0120037C025F081
:1021200038C026F01200376E37C0CAFF1200376E73
:1021300037C0C8FF12002C509FEC10F012002D6E1B
:102140002DC0C9FF1200B3EC10F0296E1200B5ECDF
:1021500010F0286E12009D86120089861200D09E13
:1021600012009E961200C9501200C8501200C5827B
:082170001200C68812001200E3
:020000040020DA
:08000000FFFFFFFFFFFFFFFF00
:020000040030CA
:0E000000FF281F3CFFBF85FF0FC00FE00F4021
:00000001FF
