:020000040000FA
:040000005EEF00F0BF
:100008004B82FACF31F0FBCF32F0E1CF33F0E2CFC1
:1000180034F0D9CF35F0DACF36F0F2AC16EF00F085
:1000280018EF00F050EF00F0A0A61DEF00F01FEF52
:1000380000F035EF00F0A1A624EF00F026EF00F065
:1000480035EF00F002D833EF00F00500FA6E2550C6
:10005800FD6E2650FE6EF850FF6EFA50120050EFFB
:1000680000F09DA63AEF00F03CEF00F050EF00F0F2
:100078009EA641EF00F043EF00F050EF00F002D8E9
:1000880050EF00F00500FA6E4950FD6E4A50FE6EC2
:10009800F850FF6EFA50120036C0DAFF35C0D9FFAB
:1000A80034C0E2FF33C0E1FF32C0FBFF31C0FAFFCA
:0800B8004B9211001EEF10F045
:100600000000001C00003F044010D8A40AEF03F0D3
:100610000CEF03F0BCEF03F020EE06F04150D926BA
:100620004250DA22000EDFB2010E376E20EE06F0E5
:100630004150D9264250DA22000EDFB4010E386E46
:1006400020EE06F04150D9264250DA22000EDFB6E5
:10065000010E396E20EE06F04150D9264250DA22C2
:10066000000EDFB8010E3A6E20EE06F04150D9269A
:100670004250DA22000EDFBA010E3B6E20EE06F089
:100680004150D9264250DA22000EDFBC010E3C6EEA
:1006900020EE06F04150D9264250DA22000EDFBE8D
:1006A000010E3D6E20EE06F04150D9264250DA226E
:1006B000DFB05DEF03F060EF03F0010E61EF03F0D8
:1006C000000E13EC0FF020EE12F04150D9264250EC
:1006D000DA22000EDFB2010E376E20EE12F041502A
:1006E000D9264250DA22000EDFB4010E386E20EE19
:1006F00012F04150D9264250DA22000EDFB6010E28
:10070000396E20EE12F04150D9264250DA22000E06
:10071000DFB8010E3A6E20EE12F04150D926425059
:10072000DA22000EDFBA010E3B6E20EE12F04150CD
:10073000D9264250DA22000EDFBC010E3C6E20EEBC
:1007400012F04150D9264250DA22000EDFBE010ECF
:100750003D6E20EE12F04150D9264250DA22DFB031
:10076000B4EF03F0B7EF03F0010EB8EF03F0000EA3
:10077000E9EC0EF026EF0DF0020E3F184010D8A461
:10078000C4EF03F0C6EF03F076EF04F020EE05F0BF
:100790004150D9264250DA22000EDFB2010E376EE8
:1007A00020EE05F04150D9264250DA22000EDFB487
:1007B000010E386E20EE05F04150D9264250DA2263
:1007C000000EDFB6010E396E20EE05F04150D9263D
:1007D0004250DA22000EDFB8010E3A6E20EE05F02C
:1007E0004150D9264250DA22000EDFBA010E3B6E8C
:1007F00020EE05F04150D9264250DA22000EDFBC2F
:10080000010E3C6E20EE05F04150D9264250DA220E
:10081000000EDFBE010E3D6E20EE05F04150D926E0
:100820004250DA22DFB017EF04F01AEF04F0010EA5
:100830001BEF04F0000E13EC0FF020EE11F041500E
:10084000D9264250DA22000EDFB2010E376E20EEBA
:1008500011F04150D9264250DA22000EDFB4010EC9
:10086000386E20EE11F04150D9264250DA22000EA7
:10087000DFB6010E396E20EE11F04150D9264250FC
:10088000DA22000EDFB8010E3A6E20EE11F0415070
:10089000D9264250DA22000EDFBA010E3B6E20EE5E
:1008A00011F04150D9264250DA22000EDFBC010E71
:1008B0003C6E20EE11F04150D9264250DA22000E53
:1008C000DFBE010E3D6E20EE11F04150D9264250A0
:1008D000DA22DFB06EEF04F071EF04F0010E72EF78
:1008E00004F0000EE9EC0EF026EF0DF0030E3F18B9
:1008F0004010D8A47EEF04F080EF04F030EF05F054
:1009000020EE04F04150D9264250DA22000EDFB228
:10091000010E376E20EE04F04150D9264250DA2203
:10092000000EDFB4010E386E20EE04F04150D926DF
:100930004250DA22000EDFB6010E396E20EE04F0CE
:100940004150D9264250DA22000EDFB8010E3A6E2D
:1009500020EE04F04150D9264250DA22000EDFBAD0
:10096000010E3B6E20EE04F04150D9264250DA22AF
:10097000000EDFBC010E3C6E20EE04F04150D92683
:100980004250DA22000EDFBE010E3D6E20EE04F072
:100990004150D9264250DA22DFB0D1EF04F0D4EF33
:1009A00004F0010ED5EF04F0000E13EC0FF020EE72
:1009B00010F04150D9264250DA22000EDFB2010E6B
:1009C000376E20EE10F04150D9264250DA22000E48
:1009D000DFB4010E386E20EE10F04150D92642509F
:1009E000DA22000EDFB6010E396E20EE10F0415013
:1009F000D9264250DA22000EDFB8010E3A6E20EE00
:100A000010F04150D9264250DA22000EDFBA010E12
:100A10003B6E20EE10F04150D9264250DA22000EF3
:100A2000DFBC010E3C6E20EE10F04150D926425042
:100A3000DA22000EDFBE010E3D6E20EE10F04150B6
:100A4000D9264250DA22DFB028EF05F02BEF05F06F
:100A5000010E2CEF05F0000EE9EC0EF026EF0DF084
:100A6000040E3F184010D8A438EF05F03AEF05F017
:100A7000EAEF05F020EE03F04150D9264250DA2289
:100A8000000EDFB2010E376E20EE03F04150D92682
:100A90004250DA22000EDFB4010E386E20EE03F071
:100AA0004150D9264250DA22000EDFB6010E396ECF
:100AB00020EE03F04150D9264250DA22000EDFB872
:100AC000010E3A6E20EE03F04150D9264250DA2250
:100AD000000EDFBA010E3B6E20EE03F04150D92626
:100AE0004250DA22000EDFBC010E3C6E20EE03F015
:100AF0004150D9264250DA22000EDFBE010E3D6E73
:100B000020EE03F04150D9264250DA22DFB08BEFBD
:100B100005F08EEF05F0010E8FEF05F0000E13ECDF
:100B20000FF020EE0FF04150D9264250DA22000E8D
:100B3000DFB2010E376E20EE0FF04150D926425041
:100B4000DA22000EDFB4010E386E20EE0FF04150B5
:100B5000D9264250DA22000EDFB6010E396E20EEA1
:100B60000FF04150D9264250DA22000EDFB8010EB4
:100B70003A6E20EE0FF04150D9264250DA22000E94
:100B8000DFBA010E3B6E20EE0FF04150D9264250E5
:100B9000DA22000EDFBC010E3C6E20EE12F0415056
:100BA000D9264250DA22000EDFBE010E3D6E20EE45
:100BB0000FF04150D9264250DA22DFB0E2EF05F0C3
:100BC000E5EF05F0010EE6EF05F0000EE9EC0EF0A2
:100BD00026EF0DF0050E3F184010D8A4F2EF05F0F7
:100BE000F4EF05F0A4EF06F020EE02F04150D92614
:100BF0004250DA22000EDFB2010E376E20EE02F014
:100C00004150D9264250DA22000EDFB4010E386E70
:100C100020EE02F04150D9264250DA22000EDFB613
:100C2000010E396E20EE02F04150D9264250DA22F0
:100C3000000EDFB8010E3A6E20EE02F04150D926C8
:100C40004250DA22000EDFBA010E3B6E20EE02F0B7
:100C50004150D9264250DA22000EDFBC010E3C6E14
:100C600020EE02F04150D9264250DA22000EDFBEBB
:100C7000010E3D6E20EE02F04150D9264250DA229C
:100C8000DFB045EF06F048EF06F0010E49EF06F041
:100C9000000E13EC0FF020EE0EF04150D92642501A
:100CA000DA22000EDFB2010E376E20EE0EF0415058
:100CB000D9264250DA22000EDFB4010E386E20EE43
:100CC0000EF04150D9264250DA22000EDFB6010E56
:100CD000396E20EE0EF04150D9264250DA22000E35
:100CE000DFB8010E3A6E20EE0EF04150D926425088
:100CF000DA22000EDFBA010E3B6E20EE0EF04150FC
:100D0000D9264250DA22000EDFBC010E3C6E20EEE6
:100D10000EF04150D9264250DA22000EDFBE010EFD
:100D20003D6E20EE0EF04150D9264250DA22DFB05F
:100D30009CEF06F09FEF06F0010EA0EF06F0000E0C
:100D4000E9EC0EF026EF0DF0060E3F184010D8A487
:100D5000ACEF06F0AEEF06F05EEF07F020EE01F02C
:100D60004150D9264250DA22000EDFB2010E376E12
:100D700020EE01F04150D9264250DA22000EDFB4B5
:100D8000010E386E20EE01F04150D9264250DA2291
:100D9000000EDFB6010E396E20EE01F04150D9266B
:100DA0004250DA22000EDFB8010E3A6E20EE01F05A
:100DB0004150D9264250DA22000EDFBA010E3B6EB6
:100DC00020EE01F04150D9264250DA22000EDFBC5D
:100DD000010E3C6E20EE01F04150D9264250DA223D
:100DE000000EDFBE010E3D6E20EE01F04150D9260F
:100DF0004250DA22DFB0FFEF06F002EF07F0010EFB
:100E000003EF07F0000E13EC0FF020EE0DF0415051
:100E1000D9264250DA22000EDFB2010E376E20EEE4
:100E20000DF04150D9264250DA22000EDFB4010EF7
:100E3000386E20EE0DF04150D9264250DA22000ED5
:100E4000DFB6010E396E20EE0DF04150D92642502A
:100E5000DA22000EDFB8010E3A6E20EE0DF041509E
:100E6000D9264250DA22000EDFBA010E3B6E20EE88
:100E70000DF04150D9264250DA22000EDFBC010E9F
:100E80003C6E20EE0DF04150D9264250DA22000E81
:100E9000DFBE010E3D6E20EE0DF04150D9264250CE
:100EA000DA22DFB056EF07F059EF07F0010E5AEFE4
:100EB00007F0000EE9EC0EF026EF0DF0070E3F18DC
:100EC0004010D8A466EF07F068EF07F018EF08F0BD
:100ED00020EE0CF04150D9264250DA22000EDFB24B
:100EE000010E376E20EE0CF04150D9264250DA2226
:100EF000000EDFB4010E386E20EE0CF04150D92602
:100F00004250DA22000EDFB6010E396E20EE0CF0F0
:100F10004150D9264250DA22000EDFB8010E3A6E57
:100F200020EE0CF04150D9264250DA22000EDFBAF2
:100F3000010E3B6E20EE0CF04150D9264250DA22D1
:100F4000000EDFBC010E3C6E20EE0CF04150D926A5
:100F50004250DA22000EDFBE010E3D6E20EE0CF094
:100F60004150D9264250DA22DFB0B9EF07F0BCEF8A
:100F700007F0010EBDEF07F0000E13EC0FF020EEAE
:100F800018F04150D9264250DA22000EDFB2010E8D
:100F9000376E20EE18F04150D9264250DA22000E6A
:100FA000DFB4010E386E20EE18F04150D9264250C1
:100FB000DA22000EDFB6010E396E20EE18F0415035
:100FC000D9264250DA22000EDFB8010E3A6E20EE2A
:100FD00018F04150D9264250DA22000EDFBA010E35
:100FE0003B6E20EE18F04150D9264250DA22000E16
:100FF000DFBC010E3C6E20EE18F04150D926425065
:10100000DA22000EDFBE010E3D6E20EE18F04150D8
:10101000D9264250DA22DFB010EF08F013EF08F0C3
:10102000010E14EF08F0000EE9EC0EF026EF0DF0C3
:10103000080E3F184010D8A420EF08F022EF08F067
:10104000D2EF08F020EE0BF04150D9264250DA22C0
:10105000000EDFB2010E376E20EE0BF04150D926A4
:101060004250DA22000EDFB4010E386E20EE0BF093
:101070004150D9264250DA22000EDFB6010E396EF9
:1010800020EE0BF04150D9264250DA22000EDFB894
:10109000010E3A6E20EE0BF04150D9264250DA2272
:1010A000000EDFBA010E3B6E20EE0BF04150D92648
:1010B0004250DA22000EDFBC010E3C6E20EE0BF037
:1010C0004150D9264250DA22000EDFBE010E3D6E9D
:1010D00020EE0BF04150D9264250DA22DFB073EFF8
:1010E00008F076EF08F0010E77EF08F0000E13EC31
:1010F0000FF020EE17F04150D9264250DA22000EB0
:10110000DFB2010E376E20EE17F04150D926425063
:10111000DA22000EDFB4010E386E20EE17F04150D7
:10112000D9264250DA22000EDFB6010E396E20EECB
:1011300017F04150D9264250DA22000EDFB8010ED6
:101140003A6E20EE17F04150D9264250DA22000EB6
:10115000DFBA010E3B6E20EE17F04150D926425007
:10116000DA22000EDFBC010E3C6E20EE17F041507B
:10117000D9264250DA22000EDFBE010E3D6E20EE6F
:1011800017F04150D9264250DA22DFB0CAEF08F0FA
:10119000CDEF08F0010ECEEF08F0000EE9EC0EF0F6
:1011A00026EF0DF0090E3F184010D8A4DAEF08F032
:1011B000DCEF08F08CEF09F020EE0AF04150D92660
:1011C0004250DA22000EDFB2010E376E20EE0AF036
:1011D0004150D9264250DA22000EDFB4010E386E9B
:1011E00020EE0AF04150D9264250DA22000EDFB636
:1011F000010E396E20EE0AF04150D9264250DA2213
:10120000000EDFB8010E3A6E20EE0AF04150D926EA
:101210004250DA22000EDFBA010E3B6E20EE0AF0D9
:101220004150D9264250DA22000EDFBC010E3C6E3E
:1012300020EE0AF04150D9264250DA22000EDFBEDD
:10124000010E3D6E20EE0AF04150D9264250DA22BE
:10125000DFB02DEF09F030EF09F0010E31EF09F0AA
:10126000000E13EC0FF020EE16F04150D92642503C
:10127000DA22000EDFB2010E376E20EE16F041507A
:10128000D9264250DA22000EDFB4010E386E20EE6D
:1012900016F04150D9264250DA22000EDFB6010E78
:1012A000396E20EE16F04150D9264250DA22000E57
:1012B000DFB8010E3A6E20EE16F04150D9264250AA
:1012C000DA22000EDFBA010E3B6E20EE16F041501E
:1012D000D9264250DA22000EDFBC010E3C6E20EE11
:1012E00016F04150D9264250DA22000EDFBE010E20
:1012F0003D6E20EE16F04150D9264250DA22DFB082
:1013000084EF09F087EF09F0010E88EF09F0000E75
:10131000E9EC0EF026EF0DF00A0E3F184010D8A4AD
:1013200094EF09F096EF09F046EF0AF020EE09F08D
:101330004150D9264250DA22000EDFB2010E376E3C
:1013400020EE09F04150D9264250DA22000EDFB4D7
:10135000010E386E20EE09F04150D9264250DA22B3
:10136000000EDFB6010E396E20EE09F04150D9268D
:101370004250DA22000EDFB8010E3A6E20EE09F07C
:101380004150D9264250DA22000EDFBA010E3B6EE0
:1013900020EE09F04150D9264250DA22000EDFBC7F
:1013A000010E3C6E20EE09F04150D9264250DA225F
:1013B000000EDFBE010E3D6E20EE09F04150D92631
:1013C0004250DA22DFB0E7EF09F0EAEF09F0010E50
:1013D000EBEF09F0000E13EC0FF020EE15F041508A
:1013E000D9264250DA22000EDFB2010E376E20EE0F
:1013F00015F04150D9264250DA22000EDFB4010E1A
:10140000386E20EE15F04150D9264250DA22000EF7
:10141000DFB6010E396E20EE15F04150D92642504C
:10142000DA22000EDFB8010E3A6E20EE15F04150C0
:10143000D9264250DA22000EDFBA010E3B6E20EEB2
:1014400015F04150D9264250DA22000EDFBC010EC1
:101450003C6E20EE15F04150D9264250DA22000EA3
:10146000DFBE010E3D6E20EE15F04150D9264250F0
:10147000DA22DFB03EEF0AF041EF0AF0010E42EF50
:101480000AF0000EE9EC0EF026EF0DF00B0E3F18FF
:101490004010D8A44EEF0AF050EF0AF000EF0BF026
:1014A00020EE08F04150D9264250DA22000EDFB279
:1014B000010E376E20EE08F04150D9264250DA2254
:1014C000000EDFB4010E386E20EE08F04150D92630
:1014D0004250DA22000EDFB6010E396E20EE08F01F
:1014E0004150D9264250DA22000EDFB8010E3A6E82
:1014F00020EE08F04150D9264250DA22000EDFBA21
:10150000010E3B6E20EE08F04150D9264250DA22FF
:10151000000EDFBC010E3C6E20EE08F04150D926D3
:101520004250DA22000EDFBE010E3D6E20EE08F0C2
:101530004150D9264250DA22DFB0A1EF0AF0A4EFE1
:101540000AF0010EA5EF0AF0000E13EC0FF020EEEA
:1015500014F04150D9264250DA22000EDFB2010EBB
:10156000376E20EE14F04150D9264250DA22000E98
:10157000DFB4010E386E20EE14F04150D9264250EF
:10158000DA22000EDFB6010E396E20EE14F0415063
:10159000D9264250DA22000EDFB8010E3A6E20EE54
:1015A00014F04150D9264250DA22000EDFBA010E63
:1015B0003B6E20EE14F04150D9264250DA22000E44
:1015C000DFBC010E3C6E20EE14F04150D926425093
:1015D000DA22000EDFBE010E3D6E20EE14F0415007
:1015E000D9264250DA22DFB0F8EF0AF0FBEF0AF01A
:1015F000010EFCEF0AF0000EE9EC0EF026EF0DF004
:101600000C0E3F184010D8A408EF0BF00AEF0BF0B7
:10161000BAEF0BF020EE07F04150D9264250DA2203
:10162000000EDFB2010E376E20EE07F04150D926D2
:101630004250DA22000EDFB4010E386E20EE07F0C1
:101640004150D9264250DA22000EDFB6010E396E23
:1016500020EE07F04150D9264250DA22000EDFB8C2
:10166000010E3A6E20EE07F04150D9264250DA22A0
:10167000000EDFBA010E3B6E20EE07F04150D92676
:101680004250DA22000EDFBC010E3C6E20EE07F065
:101690004150D9264250DA22000EDFBE010E3D6EC7
:1016A00020EE07F04150D9264250DA22DFB05BEF3E
:1016B0000BF05EEF0BF0010E5FEF0BF0000E13EC82
:1016C0000FF020EE13F04150D9264250DA22000EDE
:1016D000DFB2010E376E20EE13F04150D926425092
:1016E000DA22000EDFB4010E386E20EE13F0415006
:1016F000D9264250DA22000EDFB6010E396E20EEF6
:1017000013F04150D9264250DA22000EDFB8010E04
:101710003A6E20EE13F04150D9264250DA22000EE4
:10172000DFBA010E3B6E20EE13F04150D926425035
:10173000DA22000EDFBC010E3C6E20EE13F04150A9
:10174000D9264250DA22000EDFBE010E3D6E20EE99
:1017500013F04150D9264250DA22DFB0B2EF0BF03D
:10176000B5EF0BF0010EB6EF0BF0000EE9EC0EF04A
:1017700026EF0DF00D0E3F184010D8A4C2EF0BF06D
:10178000C4EF0BF015EF0CF020EE1CF04150D92601
:101790004250DA22000EDFB2010E376E20EE1CF04E
:1017A0004150D9264250DA22000EDFB4010E386EC5
:1017B00020EE1CF04150D9264250DA22000EDFB64E
:1017C000010E396E20EE1CF04150D9264250DA222B
:1017D000000EDFB8010E3A6E20EE1CF04150D92603
:1017E0004250DA22000EDFBA010E3B6E20EE1CF0F2
:1017F0004150D9264250DA22000EDFBC010E3C6E69
:10180000000E3D6E20EE1CF04150D9264250DA22E7
:10181000DFB00DEF0CF010EF0CF0010E11EF0CF03B
:10182000000EBFEC0EF026EF0DF00E0E3F1840102C
:10183000D8A41DEF0CF01FEF0CF070EF0CF020EEB1
:101840001BF04150D9264250DA22000EDFB2010EC1
:10185000376E20EE1BF04150D9264250DA22000E9E
:10186000DFB4010E386E20EE1BF04150D9264250F5
:10187000DA22000EDFB6010E396E20EE1BF0415069
:10188000D9264250DA22000EDFB8010E3A6E20EE61
:101890001BF04150D9264250DA22000EDFBA010E69
:1018A0003B6E20EE1BF04150D9264250DA22000E4A
:1018B000DFBC010E3C6E000E3D6E20EE1BF0415071
:1018C000D9264250DA22DFB068EF0CF06BEF0CF053
:1018D000010E6CEF0CF0000EBFEC0EF026EF0DF0D9
:1018E0000F0E3F184010D8A478EF0CF07AEF0CF0F0
:1018F000CBEF0CF020EE1AF04150D9264250DA22FC
:10190000000EDFB2010E376E20EE1AF04150D926DC
:101910004250DA22000EDFB4010E386E20EE1AF0CB
:101920004150D9264250DA22000EDFB6010E396E40
:1019300020EE1AF04150D9264250DA22000EDFB8CC
:10194000010E3A6E20EE1AF04150D9264250DA22AA
:10195000000EDFBA010E3B6E20EE1AF04150D92680
:101960004250DA22000EDFBC010E3C6E000E3D6ECE
:1019700020EE1AF04150D9264250DA22DFB0C3EFF0
:101980000CF0C6EF0CF0010EC7EF0CF0000EBFEC30
:101990000EF026EF0DF0100E3F184010D8A4D3EF34
:1019A0000CF0D5EF0CF026EF0DF020EE19F04150C1
:1019B000D9264250DA22000EDFB2010E376E20EE39
:1019C00019F04150D9264250DA22000EDFB4010E40
:1019D000386E20EE19F04150D9264250DA22000E1E
:1019E000DFB6010E396E20EE19F04150D926425073
:1019F000DA22000EDFB8010E3A6E20EE19F04150E7
:101A0000D9264250DA22000EDFBA010E3B6E20EEDC
:101A100019F04150D9264250DA22000EDFBC010EE7
:101A20003C6E000E3D6E20EE19F04150D92642501A
:101A3000DA22DFB01EEF0DF021EF0DF0010E22EFE4
:101A40000DF0000EBFEC0EF026EF0DF01200370483
:101A50003810D8B42EEF0DF030EF0DF03AEF0DF056
:101A6000090E37183810D8A438EF0DF03AEF0DF002
:101A70003FEF0DF0899C899E8C90ECEF0DF0020EEB
:101A800037183810D8B447EF0DF049EF0DF053EF89
:101A90000DF00A0E37183810D8A451EF0DF053EF9F
:101AA0000DF058EF0DF0898C899E8C90ECEF0DF0C5
:101AB000030E37183810D8B460EF0DF062EF0DF058
:101AC0006CEF0DF00B0E37183810D8A46AEF0DF03C
:101AD0006CEF0DF071EF0DF0899C898E8C90ECEF1E
:101AE0000DF0040E37183810D8B479EF0DF07BEFF5
:101AF0000DF085EF0DF00C0E37183810D8A483EFD9
:101B00000DF085EF0DF08AEF0DF0898C898E8C90A9
:101B1000ECEF0DF0050E37183810D8B492EF0DF039
:101B200094EF0DF09EEF0DF00D0E37183810D8A47D
:101B30009CEF0DF09EEF0DF0A3EF0DF0899C899EB8
:101B40008C80ECEF0DF0060E37183810D8B4ABEFE0
:101B50000DF0ADEF0DF0B7EF0DF00E0E3718381099
:101B6000D8A4B5EF0DF0B7EF0DF0BCEF0DF0898CF8
:101B7000899E8C80ECEF0DF0070E37183810D8B422
:101B8000C4EF0DF0C6EF0DF0D0EF0DF00F0E3718CB
:101B90003810D8A4CEEF0DF0D0EF0DF0D5EF0DF04A
:101BA000899C898E8C80ECEF0DF0080E3718381068
:101BB000D8B4DDEF0DF0DFEF0DF0E9EF0DF0100E12
:101BC00037183810D8A4E7EF0DF0E9EF0DF0ECEF7F
:101BD0000DF0898C898E8C8038BEFCEF0DF038506A
:101BE00007E1090E375CD8B0F8EF0DF0FCEF0DF00F
:101BF000396A392AFDEF0DF0396A39468C503918A7
:101C0000FD0B39188C6E89961200B8EC10F0BAEC06
:101C100010F0296E4CEC10F0D8B011EF0EF013EF6D
:101C20000EF017EF0EF0020E2B6E43EF0EF0010ECA
:101C30002B6E43EF0EF040EC10F0D8B022EF0EF018
:101C400024EF0EF028EF0EF0ADEC0FF02CEF0EF0BD
:101C5000C4EC0FF0BEEC10F0000E2A6E58EF0EF040
:101C600058EC10F0D8A037EF0EF039EF0EF03FEF40
:101C70000EF0DBEC0FF0020E2A6E58EF0EF0F2ECD5
:101C80000FF02CEF0EF02B502F6E306A3050000A00
:101C9000D8B44DEF0EF058EF0EF02F50010AD8B423
:101CA0001BEF0EF0030AD8B430EF0EF058EF0EF031
:101CB0002AC02BF0C0EC10F01200010E2724D96EC0
:101CC000DA6A000EDA22AFEC10F0DF6E272A1B0E64
:101CD00027646DEF0EF06FEF0EF091EF0EF0000E37
:101CE0002E6E000E2D6E010E2D24D96E000E2E20AC
:101CF000DA6E600E2D24E16E000E2E20E26EDFCF34
:101D0000E7FF2D4A2E2A2EBE8FEF0EF02E5009E14E
:101D10001C0E2D5CD8A08FEF0EF091EF0EF073EF3C
:101D20000EF012000A0E396E1C0E3A6E64EC10F0C2
:101D300031EC10F0260E9BEC10F07F0E97EC10F0BB
:101D4000840E376E210E386E92EC10F03E0E376E18
:101D5000210E386E79EC10F04E0E376E210E386E73
:101D600083EC10F0560E376E210E386E8DEC10F0AD
:101D7000840E376E210E386E7EEC10F012003E6E2F
:101D80003EB002D08B9001D08B8037B002D08B9EBA
:101D900001D08B8E38B002D08B9201D08B8239B0BB
:101DA00002D08B9C01D08B8C3AB002D08B9401D0A6
:101DB0008B843BB002D08B9A01D08B8A3CB002D08E
:101DC0008C9601D08C863DB002D08C9401D08C844E
:101DD00012003E6E3EB002D08A9201D08A8237B0A5
:101DE00002D08D9201D08D8238B002D08A9001D07D
:101DF0008A8039B002D08D9401D08D843AB002D05F
:101E00008C9E01D08C8E3BB002D08C9C01D08C8CEF
:101E10003CB002D08C9A01D08C8A3DB002D08C9814
:101E200001D08C8812003E6E3EB002D08A9E01D056
:101E30008A8E37B002D08A9C01D08A8C38B002D00A
:101E40008A9A01D08A8A39B002D08A9801D08A88C9
:101E50003AB002D08A9601D08A863BB002D0899AE5
:101E600001D0898A3CB002D08A9401D08A843DB0E6
:101E700002D08D9001D08D801200600E456E000E54
:101E8000466EB2EC10F043C03FF044C040F045C095
:101E900041F046C042F003EC03F043C037F044C0C9
:101EA00038F027EC0DF0434A442A44BE61EF0FF0AE
:101EB000445009E1110E435CD8A061EF0FF063EFCD
:101EC0000FF063EF0FF012006BEC10F0F28EF28C5B
:101ED000B4EC10F092EC0EF0BA0E376E1C0E386EA9
:101EE00083EC10F0120E376E200E386E8DEC10F071
:101EF000000E486E010E476E47C043F048C044F0E4
:101F00003DEC0FF0290EE82EFED700D07CEF0FF04D
:101F10005EEF00F0000E8D6E000E8C6E000E896E6E
:101F2000000E8A6E000E8B6E000E966E130E926E71
:101F3000000E936E180E946E000E956E000E0F013B
:101F40003B6F000E3A6F000E396F000E3C6F030EB0
:101F5000386F000E616EF18E120021502210D8B43D
:101F6000B4EF0FF0B6EF0FF0C3EF0FF002D8C3EFEE
:101F70000FF00500FA6E2150FD6E2250FE6EF850F3
:101F8000FF6EFA50120012001D501E10D8B4CBEF95
:101F90000FF0CDEF0FF0DAEF0FF002D8DAEF0FF01D
:101FA0000500FA6E1D50FD6E1E50FE6EF850FF6E5D
:101FB000FA501200120023502410D8B4E2EF0FF0B0
:101FC000E4EF0FF0F1EF0FF002D8F1EF0FF00500A2
:101FD000FA6E2350FD6E2450FE6EF850FF6EFA50DC
:101FE000120012001F502010D8B4F9EF0FF0FBEFD1
:101FF0000FF008EF10F002D808EF10F00500FA6EAD
:102000001F50FD6E2050FE6EF850FF6EFA50120009
:102010001200000E276E89B410EF10F013EF10F0CD
:10202000010E14EF10F0000EFF0A2D6E2D462D4606
:1020300089502D18FB0B2D18896E120000EE60F0F0
:102040001C0EEE6AE806FDE100EE01F02C0EEE6AD1
:10205000E806FDE14B904B92000EF86E000164EF34
:102060000FF0C6BA36EF10F038EF10F03FEF10F077
:10207000360EC612800EC76E010EC56EC68A1200DD
:10208000C6BE45EF10F049EF10F02D6A2D2A4AEF39
:1020900010F02D6A2D301200C7B451EF10F055EF3B
:1020A00010F02D6A2D2A56EF10F02D6A2D301200F7
:1020B000C7BA5DEF10F061EF10F02D6A2D2A62EFC4
:1020C00010F02D6A2D30120039C037F03AC038F0C8
:1020D00088EC10F01200B6EC10F08AEC0FF072EC05
:1020E00010F01200400ED36E040ED26E000E9B6EE6
:1020F000120037C021F038C022F0120037C01DF0A6
:1021000038C01EF0120037C023F038C024F012008F
:1021100037C049F038C04AF0120037C01FF038C04D
:1021200020F0120037C025F038C026F01200376EBC
:1021300037C0CAFF1200376E37C0C8FF12002C50DC
:10214000A3EC10F012002D6E2DC0C9FF1200BAECE6
:1021500010F0296E1200BCEC10F0286E1200BAECE0
:1021600010F01200898612009D861200D09E120087
:102170009E961200C9501200C8501200C58212006B
:06218000C68812001200E7
:020000040020DA
:08000000FFFFFFFFFFFFFFFF00
:020000040030CA
:0E000000FF281F3CFFBF85FF0FC00FE00F4021
:00000001FF
