:020000040000FA
:0400000056EF00F0C7
:100008004382FACF31F0FBCF32F0D9CF33F0DACFD9
:1000180034F0F2AC12EF00F014EF00F04CEF00F007
:10002800A0A619EF00F01BEF00F031EF00F0A1A639
:1000380020EF00F022EF00F031EF00F002D82FEFB0
:1000480000F00500FA6E0950FD6E0A50FE6EF85079
:10005800FF6EFA5012004CEF00F09DA636EF00F04C
:1000680038EF00F04CEF00F09EA63DEF00F03FEFB8
:1000780000F04CEF00F002D84CEF00F00500FA6EEB
:100088004150FD6E4250FE6EF850FF6EFA5012005D
:1000980034C0DAFF33C0D9FF32C0FBFF31C0FAFFEA
:0800A80043921100FDEF0FF07F
:100600000000000035EC10F0F28EF28C7CEC10F063
:1006100097EC0EF0B00E356E1F0E366E4DEC10F0EE
:10062000820E356E1F0E366E57EC10F0000E3E6EC9
:10063000010E3D6E120E3F6E000E406E79EC10F012
:100640003D043E10D8A427EF03F029EF03F0D9EFC3
:1006500003F020EE06F03F50D9264050DA22000E7B
:10066000DFB2010E356E20EE06F03F50D926405025
:10067000DA22000EDFB4010E366E20EE06F03F5097
:10068000D9264050DA22000EDFB6010E376E20EE7A
:1006900006F03F50D9264050DA22000EDFB8010E96
:1006A000386E20EE06F03F50D9264050DA22000E78
:1006B000DFBA010E396E20EE06F03F50D9264050C9
:1006C000DA22000EDFBC010E3A6E20EE06F03F503B
:1006D000D9264050DA22000EDFBE010E3B6E20EE1E
:1006E00006F03F50D9264050DA22DFB07AEF03F00F
:1006F0007DEF03F0010E7EEF03F0000E18EC0FF01B
:1007000020EE12F03F50D9264050DA22000EDFB220
:10071000010E356E20EE12F03F50D9264050DA22FD
:10072000000EDFB4010E366E20EE12F03F50D926D7
:100730004050DA22000EDFB6010E376E20EE12F0C6
:100740003F50D9264050DA22000EDFB8010E386E35
:1007500020EE12F03F50D9264050DA22000EDFBAC8
:10076000010E396E20EE12F03F50D9264050DA22A9
:10077000000EDFBC010E3A6E20EE12F03F50D9267B
:100780004050DA22000EDFBE010E3B6E20EE12F06A
:100790003F50D9264050DA22DFB0D1EF03F0D4EF3A
:1007A00003F0010ED5EF03F0000EEEEC0EF043EF78
:1007B0000DF0020E3D183E10D8A4E1EF03F0E3EF78
:1007C00003F093EF04F020EE05F03F50D92640509F
:1007D000DA22000EDFB2010E356E20EE05F03F503A
:1007E000D9264050DA22000EDFB4010E366E20EE1C
:1007F00005F03F50D9264050DA22000EDFB6010E38
:10080000376E20EE05F03F50D9264050DA22000E18
:10081000DFB8010E386E20EE05F03F50D92640506B
:10082000DA22000EDFBA010E396E20EE05F03F50DD
:10083000D9264050DA22000EDFBC010E3A6E20EEBF
:1008400005F03F50D9264050DA22000EDFBE010EDF
:100850003B6E20EE05F03F50D9264050DA22DFB043
:1008600034EF04F037EF04F0010E38EF04F0000E1F
:1008700018EC0FF020EE11F03F50D9264050DA224C
:10088000000EDFB2010E356E20EE11F03F50D9267A
:100890004050DA22000EDFB4010E366E20EE11F069
:1008A0003F50D9264050DA22000EDFB6010E376ED7
:1008B00020EE11F03F50D9264050DA22000EDFB86A
:1008C000010E386E20EE11F03F50D9264050DA224A
:1008D000000EDFBA010E396E20EE11F03F50D9261E
:1008E0004050DA22000EDFBC010E3A6E20EE11F00D
:1008F0003F50D9264050DA22000EDFBE010E3B6E7B
:1009000020EE11F03F50D9264050DA22DFB08BEFB5
:1009100004F08EEF04F0010E8FEF04F0000EEEEC09
:100920000EF043EF0DF0030E3D183E10D8A49BEFE0
:1009300004F09DEF04F04DEF05F020EE04F03F5081
:10094000D9264050DA22000EDFB2010E356E20EEBD
:1009500004F03F50D9264050DA22000EDFB4010ED9
:10096000366E20EE04F03F50D9264050DA22000EB9
:10097000DFB6010E376E20EE04F03F50D92640500E
:10098000DA22000EDFB8010E386E20EE04F03F5080
:10099000D9264050DA22000EDFBA010E396E20EE61
:1009A00004F03F50D9264050DA22000EDFBC010E81
:1009B0003A6E20EE04F03F50D9264050DA22000E65
:1009C000DFBE010E3B6E20EE04F03F50D9264050B2
:1009D000DA22DFB0EEEF04F0F1EF04F0010EF2EFF7
:1009E00004F0000E18EC0FF020EE10F03F50D92666
:1009F0004050DA22000EDFB2010E356E20EE10F00C
:100A00003F50D9264050DA22000EDFB4010E366E78
:100A100020EE10F03F50D9264050DA22000EDFB60B
:100A2000010E376E20EE10F03F50D9264050DA22EA
:100A3000000EDFB8010E386E20EE10F03F50D926C0
:100A40004050DA22000EDFBA010E396E20EE10F0AF
:100A50003F50D9264050DA22000EDFBC010E3A6E1C
:100A600020EE10F03F50D9264050DA22000EDFBEB3
:100A7000010E3B6E20EE10F03F50D9264050DA2296
:100A8000DFB045EF05F048EF05F0010E49EF05F046
:100A9000000EEEEC0EF043EF0DF0040E3D183E108C
:100AA000D8A455EF05F057EF05F007EF06F020EE5C
:100AB00003F03F50D9264050DA22000EDFB2010E7B
:100AC000356E20EE03F03F50D9264050DA22000E5A
:100AD000DFB4010E366E20EE03F03F50D9264050B1
:100AE000DA22000EDFB6010E376E20EE03F03F5023
:100AF000D9264050DA22000EDFB8010E386E20EE03
:100B000003F03F50D9264050DA22000EDFBA010E22
:100B1000396E20EE03F03F50D9264050DA22000E05
:100B2000DFBC010E3A6E20EE03F03F50D926405054
:100B3000DA22000EDFBE010E3B6E20EE03F03F50C6
:100B4000D9264050DA22DFB0A8EF05F0ABEF05F070
:100B5000010EACEF05F0000E18EC0FF020EE0FF0D8
:100B60003F50D9264050DA22000EDFB2010E356E1A
:100B700020EE0FF03F50D9264050DA22000EDFB4AD
:100B8000010E366E20EE0FF03F50D9264050DA228B
:100B9000000EDFB6010E376E20EE0FF03F50D92663
:100BA0004050DA22000EDFB8010E386E20EE0FF052
:100BB0003F50D9264050DA22000EDFBA010E396EBE
:100BC00020EE0FF03F50D9264050DA22000EDFBC55
:100BD000010E3A6E20EE12F03F50D9264050DA2234
:100BE000000EDFBE010E3B6E20EE0FF03F50D92607
:100BF0004050DA22DFB0FFEF05F002EF06F0010E01
:100C000003EF06F0000EEEEC0EF043EF0DF0050ED4
:100C10003D183E10D8A40FEF06F011EF06F0C1EF1B
:100C200006F020EE02F03F50D9264050DA22000EA6
:100C3000DFB2010E356E20EE02F03F50D926405053
:100C4000DA22000EDFB4010E366E20EE02F03F50C5
:100C5000D9264050DA22000EDFB6010E376E20EEA4
:100C600002F03F50D9264050DA22000EDFB8010EC4
:100C7000386E20EE02F03F50D9264050DA22000EA6
:100C8000DFBA010E396E20EE02F03F50D9264050F7
:100C9000DA22000EDFBC010E3A6E20EE02F03F5069
:100CA000D9264050DA22000EDFBE010E3B6E20EE48
:100CB00002F03F50D9264050DA22DFB062EF06F052
:100CC00065EF06F0010E66EF06F0000E18EC0FF06F
:100CD00020EE0EF03F50D9264050DA22000EDFB24F
:100CE000010E356E20EE0EF03F50D9264050DA222C
:100CF000000EDFB4010E366E20EE0EF03F50D92606
:100D00004050DA22000EDFB6010E376E20EE0EF0F4
:100D10003F50D9264050DA22000EDFB8010E386E5F
:100D200020EE0EF03F50D9264050DA22000EDFBAF6
:100D3000010E396E20EE0EF03F50D9264050DA22D7
:100D4000000EDFBC010E3A6E20EE0EF03F50D926A9
:100D50004050DA22000EDFBE010E3B6E20EE0EF098
:100D60003F50D9264050DA22DFB0B9EF06F0BCEF91
:100D700006F0010EBDEF06F0000EEEEC0EF043EFB4
:100D80000DF0060E3D183E10D8A4C9EF06F0CBEFCB
:100D900006F07BEF07F020EE01F03F50D9264050DF
:100DA000DA22000EDFB2010E356E20EE01F03F5068
:100DB000D9264050DA22000EDFB4010E366E20EE46
:100DC00001F03F50D9264050DA22000EDFB6010E66
:100DD000376E20EE01F03F50D9264050DA22000E47
:100DE000DFB8010E386E20EE01F03F50D92640509A
:100DF000DA22000EDFBA010E396E20EE01F03F500C
:100E0000D9264050DA22000EDFBC010E3A6E20EEE9
:100E100001F03F50D9264050DA22000EDFBE010E0D
:100E20003B6E20EE01F03F50D9264050DA22DFB071
:100E30001CEF07F01FEF07F0010E20EF07F0000E88
:100E400018EC0FF020EE0DF03F50D9264050DA227A
:100E5000000EDFB2010E356E20EE0DF03F50D926A8
:100E60004050DA22000EDFB4010E366E20EE0DF097
:100E70003F50D9264050DA22000EDFB6010E376E01
:100E800020EE0DF03F50D9264050DA22000EDFB898
:100E9000010E386E20EE0DF03F50D9264050DA2278
:100EA000000EDFBA010E396E20EE0DF03F50D9264C
:100EB0004050DA22000EDFBC010E3A6E20EE0DF03B
:100EC0003F50D9264050DA22000EDFBE010E3B6EA5
:100ED00020EE0DF03F50D9264050DA22DFB073EFFC
:100EE00007F076EF07F0010E77EF07F0000EEEEC5B
:100EF0000EF043EF0DF0070E3D183E10D8A483EF1F
:100F000007F085EF07F035EF08F020EE0CF03F50CA
:100F1000D9264050DA22000EDFB2010E356E20EEE7
:100F20000CF03F50D9264050DA22000EDFB4010EFB
:100F3000366E20EE0CF03F50D9264050DA22000EDB
:100F4000DFB6010E376E20EE0CF03F50D926405030
:100F5000DA22000EDFB8010E386E20EE0CF03F50A2
:100F6000D9264050DA22000EDFBA010E396E20EE8B
:100F70000CF03F50D9264050DA22000EDFBC010EA3
:100F80003A6E20EE0CF03F50D9264050DA22000E87
:100F9000DFBE010E3B6E20EE0CF03F50D9264050D4
:100FA000DA22DFB0D6EF07F0D9EF07F0010EDAEF63
:100FB00007F0000E18EC0FF020EE18F03F50D92685
:100FC0004050DA22000EDFB2010E356E20EE18F02E
:100FD0003F50D9264050DA22000EDFB4010E366EA3
:100FE00020EE18F03F50D9264050DA22000EDFB62E
:100FF000010E376E20EE18F03F50D9264050DA220D
:10100000000EDFB8010E386E20EE18F03F50D926E2
:101010004050DA22000EDFBA010E396E20EE18F0D1
:101020003F50D9264050DA22000EDFBC010E3A6E46
:1010300020EE18F03F50D9264050DA22000EDFBED5
:10104000010E3B6E20EE18F03F50D9264050DA22B8
:10105000DFB02DEF08F030EF08F0010E31EF08F0AF
:10106000000EEEEC0EF043EF0DF0080E3D183E10B2
:10107000D8A43DEF08F03FEF08F0EFEF08F020EEC6
:101080000BF03F50D9264050DA22000EDFB2010E9D
:10109000356E20EE0BF03F50D9264050DA22000E7C
:1010A000DFB4010E366E20EE0BF03F50D9264050D3
:1010B000DA22000EDFB6010E376E20EE0BF03F5045
:1010C000D9264050DA22000EDFB8010E386E20EE2D
:1010D0000BF03F50D9264050DA22000EDFBA010E45
:1010E000396E20EE0BF03F50D9264050DA22000E28
:1010F000DFBC010E3A6E20EE0BF03F50D926405077
:10110000DA22000EDFBE010E3B6E20EE0BF03F50E8
:10111000D9264050DA22DFB090EF08F093EF08F0C4
:10112000010E94EF08F0000E18EC0FF020EE17F00F
:101130003F50D9264050DA22000EDFB2010E356E44
:1011400020EE17F03F50D9264050DA22000EDFB4CF
:10115000010E366E20EE17F03F50D9264050DA22AD
:10116000000EDFB6010E376E20EE17F03F50D92685
:101170004050DA22000EDFB8010E386E20EE17F074
:101180003F50D9264050DA22000EDFBA010E396EE8
:1011900020EE17F03F50D9264050DA22000EDFBC77
:1011A000010E3A6E20EE17F03F50D9264050DA2259
:1011B000000EDFBE010E3B6E20EE17F03F50D92629
:1011C0004050DA22DFB0E7EF08F0EAEF08F0010E56
:1011D000EBEF08F0000EEEEC0EF043EF0DF0090E11
:1011E0003D183E10D8A4F7EF08F0F9EF08F0A9EF8A
:1011F00009F020EE0AF03F50D9264050DA22000EC6
:10120000DFB2010E356E20EE0AF03F50D926405075
:10121000DA22000EDFB4010E366E20EE0AF03F50E7
:10122000D9264050DA22000EDFB6010E376E20EECE
:101230000AF03F50D9264050DA22000EDFB8010EE6
:10124000386E20EE0AF03F50D9264050DA22000EC8
:10125000DFBA010E396E20EE0AF03F50D926405019
:10126000DA22000EDFBC010E3A6E20EE0AF03F508B
:10127000D9264050DA22000EDFBE010E3B6E20EE72
:101280000AF03F50D9264050DA22DFB04AEF09F089
:101290004DEF09F0010E4EEF09F0000E18EC0FF0C3
:1012A00020EE16F03F50D9264050DA22000EDFB271
:1012B000010E356E20EE16F03F50D9264050DA224E
:1012C000000EDFB4010E366E20EE16F03F50D92628
:1012D0004050DA22000EDFB6010E376E20EE16F017
:1012E0003F50D9264050DA22000EDFB8010E386E8A
:1012F00020EE16F03F50D9264050DA22000EDFBA19
:10130000010E396E20EE16F03F50D9264050DA22F9
:10131000000EDFBC010E3A6E20EE16F03F50D926CB
:101320004050DA22000EDFBE010E3B6E20EE16F0BA
:101330003F50D9264050DA22DFB0A1EF09F0A4EFE8
:1013400009F0010EA5EF09F0000EEEEC0EF043EFF0
:101350000DF00A0E3D183E10D8A4B1EF09F0B3EF1E
:1013600009F063EF0AF020EE09F03F50D926405013
:10137000DA22000EDFB2010E356E20EE09F03F508A
:10138000D9264050DA22000EDFB4010E366E20EE70
:1013900009F03F50D9264050DA22000EDFB6010E88
:1013A000376E20EE09F03F50D9264050DA22000E69
:1013B000DFB8010E386E20EE09F03F50D9264050BC
:1013C000DA22000EDFBA010E396E20EE09F03F502E
:1013D000D9264050DA22000EDFBC010E3A6E20EE14
:1013E00009F03F50D9264050DA22000EDFBE010E30
:1013F0003B6E20EE09F03F50D9264050DA22DFB094
:1014000004EF0AF007EF0AF0010E08EF0AF0000EF1
:1014100018EC0FF020EE15F03F50D9264050DA229C
:10142000000EDFB2010E356E20EE15F03F50D926CA
:101430004050DA22000EDFB4010E366E20EE15F0B9
:101440003F50D9264050DA22000EDFB6010E376E2B
:1014500020EE15F03F50D9264050DA22000EDFB8BA
:10146000010E386E20EE15F03F50D9264050DA229A
:10147000000EDFBA010E396E20EE15F03F50D9266E
:101480004050DA22000EDFBC010E3A6E20EE15F05D
:101490003F50D9264050DA22000EDFBE010E3B6ECF
:1014A00020EE15F03F50D9264050DA22DFB05BEF36
:1014B0000AF05EEF0AF0010E5FEF0AF0000EEEECAC
:1014C0000EF043EF0DF00B0E3D183E10D8A46BEF5D
:1014D0000AF06DEF0AF01DEF0BF020EE08F03F5020
:1014E000D9264050DA22000EDFB2010E356E20EE12
:1014F00008F03F50D9264050DA22000EDFB4010E2A
:10150000366E20EE08F03F50D9264050DA22000E09
:10151000DFB6010E376E20EE08F03F50D92640505E
:10152000DA22000EDFB8010E386E20EE08F03F50D0
:10153000D9264050DA22000EDFBA010E396E20EEB5
:1015400008F03F50D9264050DA22000EDFBC010ED1
:101550003A6E20EE08F03F50D9264050DA22000EB5
:10156000DFBE010E3B6E20EE08F03F50D926405002
:10157000DA22DFB0BEEF0AF0C1EF0AF0010EC2EFCF
:101580000AF0000E18EC0FF020EE14F03F50D926B0
:101590004050DA22000EDFB2010E356E20EE14F05C
:1015A0003F50D9264050DA22000EDFB4010E366ECD
:1015B00020EE14F03F50D9264050DA22000EDFB65C
:1015C000010E376E20EE14F03F50D9264050DA223B
:1015D000000EDFB8010E386E20EE14F03F50D92611
:1015E0004050DA22000EDFBA010E396E20EE14F000
:1015F0003F50D9264050DA22000EDFBC010E3A6E71
:1016000020EE14F03F50D9264050DA22000EDFBE03
:10161000010E3B6E20EE14F03F50D9264050DA22E6
:10162000DFB015EF0BF018EF0BF0010E19EF0BF018
:10163000000EEEEC0EF043EF0DF00C0E3D183E10D8
:10164000D8A425EF0BF027EF0BF0D7EF0BF020EE2F
:1016500007F03F50D9264050DA22000EDFB2010ECB
:10166000356E20EE07F03F50D9264050DA22000EAA
:10167000DFB4010E366E20EE07F03F50D926405001
:10168000DA22000EDFB6010E376E20EE07F03F5073
:10169000D9264050DA22000EDFB8010E386E20EE57
:1016A00007F03F50D9264050DA22000EDFBA010E73
:1016B000396E20EE07F03F50D9264050DA22000E56
:1016C000DFBC010E3A6E20EE07F03F50D9264050A5
:1016D000DA22000EDFBE010E3B6E20EE07F03F5017
:1016E000D9264050DA22DFB078EF0BF07BEF0BF019
:1016F000010E7CEF0BF0000E18EC0FF020EE13F053
:101700003F50D9264050DA22000EDFB2010E356E6E
:1017100020EE13F03F50D9264050DA22000EDFB4FD
:10172000010E366E20EE13F03F50D9264050DA22DB
:10173000000EDFB6010E376E20EE13F03F50D926B3
:101740004050DA22000EDFB8010E386E20EE13F0A2
:101750003F50D9264050DA22000EDFBA010E396E12
:1017600020EE13F03F50D9264050DA22000EDFBCA5
:10177000010E3A6E20EE13F03F50D9264050DA2287
:10178000000EDFBE010E3B6E20EE13F03F50D92657
:101790004050DA22DFB0CFEF0BF0D2EF0BF0010EAA
:1017A000D3EF0BF0000EEEEC0EF043EF0DF00D0E4C
:1017B0003D183E10D8A4DFEF0BF0E1EF0BF032EF55
:1017C0000CF020EE1CF03F50D9264050DA22000EDB
:1017D000DFB2010E356E20EE1CF03F50D92640508E
:1017E000DA22000EDFB4010E366E20EE1CF03F5000
:1017F000D9264050DA22000EDFB6010E376E20EEF9
:101800001CF03F50D9264050DA22000EDFB8010EFE
:10181000386E20EE1CF03F50D9264050DA22000EE0
:10182000DFBA010E396E20EE1CF03F50D926405031
:10183000DA22000EDFBC010E3A6E000E3B6E20EE87
:101840001CF03F50D9264050DA22DFB02AEF0CF0CE
:101850002DEF0CF0010E2EEF0CF0000EC4EC0EF08C
:1018600043EF0DF00E0E3D183E10D8A43AEF0CF0E9
:101870003CEF0CF08DEF0CF020EE1BF03F50D92622
:101880004050DA22000EDFB2010E356E20EE1BF062
:101890003F50D9264050DA22000EDFB4010E366EDA
:1018A00020EE1BF03F50D9264050DA22000EDFB662
:1018B000010E376E20EE1BF03F50D9264050DA2241
:1018C000000EDFB8010E386E20EE1BF03F50D92617
:1018D0004050DA22000EDFBA010E396E20EE1BF006
:1018E0003F50D9264050DA22000EDFBC010E3A6E7E
:1018F000000E3B6E20EE1BF03F50D9264050DA22FE
:10190000DFB085EF0CF088EF0CF0010E89EF0CF0E2
:10191000000EC4EC0EF043EF0DF00F0E3D183E101C
:10192000D8A495EF0CF097EF0CF0E8EF0CF020EE58
:101930001AF03F50D9264050DA22000EDFB2010ED5
:10194000356E20EE1AF03F50D9264050DA22000EB4
:10195000DFB4010E366E20EE1AF03F50D92640500B
:10196000DA22000EDFB6010E376E20EE1AF03F507D
:10197000D9264050DA22000EDFB8010E386E20EE74
:101980001AF03F50D9264050DA22000EDFBA010E7D
:10199000396E20EE1AF03F50D9264050DA22000E60
:1019A000DFBC010E3A6E000E3B6E20EE1AF03F5087
:1019B000D9264050DA22DFB0E0EF0CF0E3EF0CF074
:1019C000010EE4EF0CF0000EC4EC0EF043EF0DF04E
:1019D000100E3D183E10D8A4F0EF0CF0F2EF0CF012
:1019E00043EF0DF020EE19F03F50D9264050DA2297
:1019F000000EDFB2010E356E20EE19F03F50D926F1
:101A00004050DA22000EDFB4010E366E20EE19F0DF
:101A10003F50D9264050DA22000EDFB6010E376E55
:101A200020EE19F03F50D9264050DA22000EDFB8E0
:101A3000010E386E20EE19F03F50D9264050DA22C0
:101A4000000EDFBA010E396E20EE19F03F50D92694
:101A50004050DA22000EDFBC010E3A6E000E3B6EE3
:101A600020EE19F03F50D9264050DA22DFB03BEF8C
:101A70000DF03EEF0DF0010E3FEF0DF0000EC4EC47
:101A80000EF043EF0DF03DC035F03EC036F061EC96
:101A90000DF03D4A3E2A110E3D183E10D8A453EFDA
:101AA0000DF055EF0DF059EF0DF0000E3E6E010EEA
:101AB0003D6E290EE82EFED700D01AEF03F056EF48
:101AC00000F035043610D8B468EF0DF06AEF0DF071
:101AD00074EF0DF0090E35183610D8A472EF0DF022
:101AE00074EF0DF079EF0DF0899C899E8C9026EFB4
:101AF0000EF0020E35183610D8B481EF0DF083EFDA
:101B00000DF08DEF0DF00A0E35183610D8A48BEFBE
:101B10000DF08DEF0DF092EF0DF0898C899E8C9079
:101B200026EF0EF0030E35183610D8B49AEF0DF0EC
:101B30009CEF0DF0A6EF0DF00B0E35183610D8A463
:101B4000A4EF0DF0A6EF0DF0ABEF0DF0899C898EA0
:101B50008C9026EF0EF0040E35183610D8B4B3EF83
:101B60000DF0B5EF0DF0BFEF0DF00C0E351836107F
:101B7000D8A4BDEF0DF0BFEF0DF0C4EF0DF0898CD0
:101B8000898E8C9026EF0EF0050E35183610D8B4DD
:101B9000CCEF0DF0CEEF0DF0D8EF0DF00D0E3518A7
:101BA0003610D8A4D6EF0DF0D8EF0DF0DDEF0DF024
:101BB000899C899E8C8026EF0EF0060E3518361013
:101BC000D8B4E5EF0DF0E7EF0DF0F1EF0DF00E0EEC
:101BD00035183610D8A4EFEF0DF0F1EF0DF0F6EF59
:101BE0000DF0898C899E8C8026EF0EF0070E35183B
:101BF0003610D8B4FEEF0DF000EF0EF00AEF0EF045
:101C00000F0E35183610D8A408EF0EF00AEF0EF0BC
:101C10000FEF0EF0899C898E8C8026EF0EF0080E57
:101C200035183610D8B417EF0EF019EF0EF023EF79
:101C30000EF0100E35183610D8A421EF0EF023EF59
:101C40000EF026EF0EF0898C898E8C8036BE36EF32
:101C50000EF0365007E1090E355CD8B032EF0EF0C9
:101C600036EF0EF0376A372A37EF0EF0376A37460D
:101C70008C503718FD0B37188C6E8996120080EC4B
:101C800010F082EC10F00E6E16EC10F0D8B04BEFA6
:101C90000EF04DEF0EF051EF0EF0020E106E7DEFD4
:101CA0000EF0010E106E7DEF0EF00AEC10F0D8B0C1
:101CB0005CEF0EF05EEF0EF062EF0EF065EC0FF0F1
:101CC00066EF0EF07CEC0FF086EC10F0000E0F6E5D
:101CD00092EF0EF022EC10F0D8A071EF0EF073EF3F
:101CE0000EF079EF0EF093EC0FF0020E0F6E92EF04
:101CF0000EF0AAEC0FF066EF0EF010502F6E306A67
:101D00003050000AD8B487EF0EF092EF0EF02F504B
:101D1000010AD8B455EF0EF0030AD8B46AEF0EF0FA
:101D200092EF0EF00FC010F088EC10F012007E0E53
:101D3000376E1C0E386E2EEC10F0EEEC0FF0260E07
:101D400065EC10F07F0E61EC10F0140E356E210E74
:101D5000366E5CEC10F0D20E356E200E366E43EC13
:101D600010F0E20E356E200E366E4DEC10F0EA0EDD
:101D7000356E200E366E57EC10F0140E356E210EB7
:101D8000366E48EC10F012003C6E3CB002D08B90E6
:101D900001D08B8035B002D08B9E01D08B8E36B0B7
:101DA00002D08B9201D08B8237B002D08B9C01D0B5
:101DB0008B8C38B002D08B9401D08B8439B002D098
:101DC0008B9A01D08B8A3AB002D08C9601D08C8647
:101DD0003BB002D08C9401D08C8412003C6E3CB09D
:101DE00002D08A9201D08A8235B002D08D9201D081
:101DF0008D8236B002D08A9001D08A8037B002D06E
:101E00008D9401D08D8438B002D08C9E01D08C8E00
:101E100039B002D08C9C01D08C8C3AB002D08C9A14
:101E200001D08C8A3BB002D08C9801D08C881200F3
:101E30003C6E3CB002D08A9E01D08A8E35B002D072
:101E40008A9C01D08A8C36B002D08A9A01D08A8AC4
:101E500037B002D08A9801D08A8838B002D08A96EA
:101E600001D08A8639B002D0899A01D0898A3AB0E5
:101E700002D08A9401D08A843BB002D08D9001D0E8
:101E80008D801200000E8D6E000E8C6E000E896E1D
:101E9000000E8A6E000E8B6E000E966E130E926E02
:101EA000000E936E180E946E000E956E000E0F01CC
:101EB0003B6F000E3A6F000E396F000E3C6F030E41
:101EC000386F000E616EF18E120005500610D8B406
:101ED0006CEF0FF06EEF0FF07BEF0FF002D87BEF9F
:101EE0000FF00500FA6E0550FD6E0650FE6EF850BC
:101EF000FF6EFA501200120001500210D8B483EFA6
:101F00000FF085EF0FF092EF0FF002D892EF0FF085
:101F10000500FA6E0150FD6E0250FE6EF850FF6E25
:101F2000FA501200120007500810D8B49AEF0FF0C0
:101F30009CEF0FF0A9EF0FF002D8A9EF0FF005000A
:101F4000FA6E0750FD6E0850FE6EF850FF6EFA50A4
:101F50001200120003500410D8B4B1EF0FF0B3EF29
:101F60000FF0C0EF0FF002D8C0EF0FF00500FA6ECF
:101F70000350FD6E0450FE6EF850FF6EFA501200D2
:101F80001200000E0C6E000E0B6E89B4CAEF0FF03B
:101F9000CDEF0FF0010ECEEF0FF0000EFF0A2E6E08
:101FA0002E462E4689502E18FB0B2E18896E1200D5
:101FB000120E0C24D96EDA6A000EDA2282EC10F0CE
:101FC000DF6E0C2A1C0E0C60E8EF0FF0EBEF0FF049
:101FD000010EECEF0FF0000E0B6E1200C6BAF3EF1D
:101FE0000FF0F5EF0FF0FCEF0FF0360EC612800E7B
:101FF000C76E010EC56EC68A120000EE01F02D0EEE
:10200000EE6AE806FDE143904392000EF86E00018F
:1020100002EF03F0C6BE0FEF10F013EF10F02E6AC0
:102020002E2A14EF10F02E6A2E301200C7B41BEFC8
:1020300010F01FEF10F02E6A2E2A20EF10F02E6AFB
:102040002E301200C7BA27EF10F02BEF10F02E6AD7
:102050002E2A2CEF10F02E6A2E30120037C035F0E9
:1020600038C036F052EC10F012007EEC10F042EC6A
:102070000FF03CEC10F01200400ED36E040ED26E46
:10208000000E9B6E120035C005F036C006F012003F
:1020900035C001F036C002F0120035C007F036C07E
:1020A00008F0120035C041F036C042F0120035C0D1
:1020B00003F036C004F0120035C009F036C00AF053
:1020C0001200356E35C0CAFF1200356E35C0C8FF2C
:1020D000120011506DEC10F012002E6E2EC0C9FFD0
:1020E000120082EC10F00E6E120084EC10F00D6EF7
:1020F00012008C82898612009D861200D09E1200EA
:102100009E961200C9501200C8501200C5821200DB
:06211000C6881200120057
:020000040020DA
:08000000FFFFFFFFFFFFFFFF00
:020000040030CA
:0E000000FF281F3CFFBF85FF0FC00FE00F4021
:00000001FF
