:0400000056EF00F0C7
:100008005082FACF34F0FBCF35F0D9CF36F0DACFC3
:1000180037F0F2AC12EF00F014EF00F04CEF00F004
:10002800A0A619EF00F01BEF00F031EF00F0A1A639
:1000380020EF00F022EF00F031EF00F002D82FEFB0
:1000480000F00500FA6E0D50FD6E0E50FE6EF85071
:10005800FF6EFA5012004CEF00F09DA636EF00F04C
:1000680038EF00F04CEF00F09EA63DEF00F03FEFB8
:1000780000F04CEF00F002D84CEF00F00500FA6EEB
:100088004C50FD6E4D50FE6EF850FF6EFA50120047
:1000980037C0DAFF36C0D9FF35C0FBFF34C0FAFFDE
:0800A800509211008FEF0FF0E0
:100600000000001C000040044110D8A40AEF03F0D1
:100610000CEF03F0BCEF03F020EE06F04250D926B9
:100620004350DA22000EDFB2010E386E20EE06F0E3
:100630004250D9264350DA22000EDFB4010E396E43
:1006400020EE06F04250D9264350DA22000EDFB6E3
:10065000010E3A6E20EE06F04250D9264350DA22BF
:10066000000EDFB8010E3B6E20EE06F04250D92698
:100670004350DA22000EDFBA010E3C6E20EE06F087
:100680004250D9264350DA22000EDFBC010E3D6EE7
:1006900020EE06F04250D9264350DA22000EDFBE8B
:1006A000010E3E6E20EE06F04250D9264350DA226B
:1006B000DFB05DEF03F060EF03F0010E61EF03F0D8
:1006C000000E1BEC0FF020EE12F04250D9264350E2
:1006D000DA22000EDFB2010E386E20EE12F0425028
:1006E000D9264350DA22000EDFB4010E396E20EE17
:1006F00012F04250D9264350DA22000EDFB6010E26
:100700003A6E20EE12F04250D9264350DA22000E03
:10071000DFB8010E3B6E20EE12F04250D926435056
:10072000DA22000EDFBA010E3C6E20EE12F04250CB
:10073000D9264350DA22000EDFBC010E3D6E20EEBA
:1007400012F04250D9264350DA22000EDFBE010ECD
:100750003E6E20EE12F04250D9264350DA22DFB02E
:10076000B4EF03F0B7EF03F0010EB8EF03F0000EA3
:10077000F1EC0EF026EF0DF0020E40184110D8A457
:10078000C4EF03F0C6EF03F076EF04F020EE05F0BF
:100790004250D9264350DA22000EDFB2010E386EE5
:1007A00020EE05F04250D9264350DA22000EDFB485
:1007B000010E396E20EE05F04250D9264350DA2260
:1007C000000EDFB6010E3A6E20EE05F04250D9263B
:1007D0004350DA22000EDFB8010E3B6E20EE05F02A
:1007E0004250D9264350DA22000EDFBA010E3C6E89
:1007F00020EE05F04250D9264350DA22000EDFBC2D
:10080000010E3D6E20EE05F04250D9264350DA220B
:10081000000EDFBE010E3E6E20EE05F04250D926DE
:100820004350DA22DFB017EF04F01AEF04F0010EA4
:100830001BEF04F0000E1BEC0FF020EE11F0425005
:10084000D9264350DA22000EDFB2010E386E20EEB8
:1008500011F04250D9264350DA22000EDFB4010EC7
:10086000396E20EE11F04250D9264350DA22000EA4
:10087000DFB6010E3A6E20EE11F04250D9264350F9
:10088000DA22000EDFB8010E3B6E20EE11F042506E
:10089000D9264350DA22000EDFBA010E3C6E20EE5C
:1008A00011F04250D9264350DA22000EDFBC010E6F
:1008B0003D6E20EE11F04250D9264350DA22000E50
:1008C000DFBE010E3E6E20EE11F04250D92643509D
:1008D000DA22DFB06EEF04F071EF04F0010E72EF78
:1008E00004F0000EF1EC0EF026EF0DF0030E4018B0
:1008F0004110D8A47EEF04F080EF04F030EF05F053
:1009000020EE04F04250D9264350DA22000EDFB226
:10091000010E386E20EE04F04250D9264350DA2200
:10092000000EDFB4010E396E20EE04F04250D926DD
:100930004350DA22000EDFB6010E3A6E20EE04F0CC
:100940004250D9264350DA22000EDFB8010E3B6E2A
:1009500020EE04F04250D9264350DA22000EDFBACE
:10096000010E3C6E20EE04F04250D9264350DA22AC
:10097000000EDFBC010E3D6E20EE04F04250D92681
:100980004350DA22000EDFBE010E3E6E20EE04F070
:100990004250D9264350DA22DFB0D1EF04F0D4EF31
:1009A00004F0010ED5EF04F0000E1BEC0FF020EE6A
:1009B00010F04250D9264350DA22000EDFB2010E69
:1009C000386E20EE10F04250D9264350DA22000E45
:1009D000DFB4010E396E20EE10F04250D92643509C
:1009E000DA22000EDFB6010E3A6E20EE10F0425011
:1009F000D9264350DA22000EDFB8010E3B6E20EEFE
:100A000010F04250D9264350DA22000EDFBA010E10
:100A10003C6E20EE10F04250D9264350DA22000EF0
:100A2000DFBC010E3D6E20EE10F04250D92643503F
:100A3000DA22000EDFBE010E3E6E20EE10F04250B4
:100A4000D9264350DA22DFB028EF05F02BEF05F06E
:100A5000010E2CEF05F0000EF1EC0EF026EF0DF07C
:100A6000040E40184110D8A438EF05F03AEF05F015
:100A7000EAEF05F020EE03F04250D9264350DA2287
:100A8000000EDFB2010E386E20EE03F04250D92680
:100A90004350DA22000EDFB4010E396E20EE03F06F
:100AA0004250D9264350DA22000EDFB6010E3A6ECC
:100AB00020EE03F04250D9264350DA22000EDFB870
:100AC000010E3B6E20EE03F04250D9264350DA224D
:100AD000000EDFBA010E3C6E20EE03F04250D92624
:100AE0004350DA22000EDFBC010E3D6E20EE03F013
:100AF0004250D9264350DA22000EDFBE010E3E6E70
:100B000020EE03F04250D9264350DA22DFB08BEFBB
:100B100005F08EEF05F0010E8FEF05F0000E1BECD7
:100B20000FF020EE0FF04250D9264350DA22000E8B
:100B3000DFB2010E386E20EE0FF04250D92643503E
:100B4000DA22000EDFB4010E396E20EE0FF04250B3
:100B5000D9264350DA22000EDFB6010E3A6E20EE9F
:100B60000FF04250D9264350DA22000EDFB8010EB2
:100B70003B6E20EE0FF04250D9264350DA22000E91
:100B8000DFBA010E3C6E20EE0FF04250D9264350E2
:100B9000DA22000EDFBC010E3D6E20EE12F0425054
:100BA000D9264350DA22000EDFBE010E3E6E20EE43
:100BB0000FF04250D9264350DA22DFB0E2EF05F0C1
:100BC000E5EF05F0010EE6EF05F0000EF1EC0EF09A
:100BD00026EF0DF0050E40184110D8A4F2EF05F0F5
:100BE000F4EF05F0A4EF06F020EE02F04250D92613
:100BF0004350DA22000EDFB2010E386E20EE02F012
:100C00004250D9264350DA22000EDFB4010E396E6D
:100C100020EE02F04250D9264350DA22000EDFB611
:100C2000010E3A6E20EE02F04250D9264350DA22ED
:100C3000000EDFB8010E3B6E20EE02F04250D926C6
:100C40004350DA22000EDFBA010E3C6E20EE02F0B5
:100C50004250D9264350DA22000EDFBC010E3D6E11
:100C600020EE02F04250D9264350DA22000EDFBEB9
:100C7000010E3E6E20EE02F04250D9264350DA2299
:100C8000DFB045EF06F048EF06F0010E49EF06F041
:100C9000000E1BEC0FF020EE0EF04250D926435010
:100CA000DA22000EDFB2010E386E20EE0EF0425056
:100CB000D9264350DA22000EDFB4010E396E20EE41
:100CC0000EF04250D9264350DA22000EDFB6010E54
:100CD0003A6E20EE0EF04250D9264350DA22000E32
:100CE000DFB8010E3B6E20EE0EF04250D926435085
:100CF000DA22000EDFBA010E3C6E20EE0EF04250FA
:100D0000D9264350DA22000EDFBC010E3D6E20EEE4
:100D10000EF04250D9264350DA22000EDFBE010EFB
:100D20003E6E20EE0EF04250D9264350DA22DFB05C
:100D30009CEF06F09FEF06F0010EA0EF06F0000E0C
:100D4000F1EC0EF026EF0DF0060E40184110D8A47D
:100D5000ACEF06F0AEEF06F05EEF07F020EE01F02C
:100D60004250D9264350DA22000EDFB2010E386E0F
:100D700020EE01F04250D9264350DA22000EDFB4B3
:100D8000010E396E20EE01F04250D9264350DA228E
:100D9000000EDFB6010E3A6E20EE01F04250D92669
:100DA0004350DA22000EDFB8010E3B6E20EE01F058
:100DB0004250D9264350DA22000EDFBA010E3C6EB3
:100DC00020EE01F04250D9264350DA22000EDFBC5B
:100DD000010E3D6E20EE01F04250D9264350DA223A
:100DE000000EDFBE010E3E6E20EE01F04250D9260D
:100DF0004350DA22DFB0FFEF06F002EF07F0010EFA
:100E000003EF07F0000E1BEC0FF020EE0DF0425048
:100E1000D9264350DA22000EDFB2010E386E20EEE2
:100E20000DF04250D9264350DA22000EDFB4010EF5
:100E3000396E20EE0DF04250D9264350DA22000ED2
:100E4000DFB6010E3A6E20EE0DF04250D926435027
:100E5000DA22000EDFB8010E3B6E20EE0DF042509C
:100E6000D9264350DA22000EDFBA010E3C6E20EE86
:100E70000DF04250D9264350DA22000EDFBC010E9D
:100E80003D6E20EE0DF04250D9264350DA22000E7E
:100E9000DFBE010E3E6E20EE0DF04250D9264350CB
:100EA000DA22DFB056EF07F059EF07F0010E5AEFE4
:100EB00007F0000EF1EC0EF026EF0DF0070E4018D3
:100EC0004110D8A466EF07F068EF07F018EF08F0BC
:100ED00020EE0CF04250D9264350DA22000EDFB249
:100EE000010E386E20EE0CF04250D9264350DA2223
:100EF000000EDFB4010E396E20EE0CF04250D92600
:100F00004350DA22000EDFB6010E3A6E20EE0CF0EE
:100F10004250D9264350DA22000EDFB8010E3B6E54
:100F200020EE0CF04250D9264350DA22000EDFBAF0
:100F3000010E3C6E20EE0CF04250D9264350DA22CE
:100F4000000EDFBC010E3D6E20EE0CF04250D926A3
:100F50004350DA22000EDFBE010E3E6E20EE0CF092
:100F60004250D9264350DA22DFB0B9EF07F0BCEF88
:100F700007F0010EBDEF07F0000E1BEC0FF020EEA6
:100F800018F04250D9264350DA22000EDFB2010E8B
:100F9000386E20EE18F04250D9264350DA22000E67
:100FA000DFB4010E396E20EE18F04250D9264350BE
:100FB000DA22000EDFB6010E3A6E20EE18F0425033
:100FC000D9264350DA22000EDFB8010E3B6E20EE28
:100FD00018F04250D9264350DA22000EDFBA010E33
:100FE0003C6E20EE18F04250D9264350DA22000E13
:100FF000DFBC010E3D6E20EE18F04250D926435062
:10100000DA22000EDFBE010E3E6E20EE18F04250D6
:10101000D9264350DA22DFB010EF08F013EF08F0C2
:10102000010E14EF08F0000EF1EC0EF026EF0DF0BB
:10103000080E40184110D8A420EF08F022EF08F065
:10104000D2EF08F020EE0BF04250D9264350DA22BE
:10105000000EDFB2010E386E20EE0BF04250D926A2
:101060004350DA22000EDFB4010E396E20EE0BF091
:101070004250D9264350DA22000EDFB6010E3A6EF6
:1010800020EE0BF04250D9264350DA22000EDFB892
:10109000010E3B6E20EE0BF04250D9264350DA226F
:1010A000000EDFBA010E3C6E20EE0BF04250D92646
:1010B0004350DA22000EDFBC010E3D6E20EE0BF035
:1010C0004250D9264350DA22000EDFBE010E3E6E9A
:1010D00020EE0BF04250D9264350DA22DFB073EFF6
:1010E00008F076EF08F0010E77EF08F0000E1BEC29
:1010F0000FF020EE17F04250D9264350DA22000EAE
:10110000DFB2010E386E20EE17F04250D926435060
:10111000DA22000EDFB4010E396E20EE17F04250D5
:10112000D9264350DA22000EDFB6010E3A6E20EEC9
:1011300017F04250D9264350DA22000EDFB8010ED4
:101140003B6E20EE17F04250D9264350DA22000EB3
:10115000DFBA010E3C6E20EE17F04250D926435004
:10116000DA22000EDFBC010E3D6E20EE17F0425079
:10117000D9264350DA22000EDFBE010E3E6E20EE6D
:1011800017F04250D9264350DA22DFB0CAEF08F0F8
:10119000CDEF08F0010ECEEF08F0000EF1EC0EF0EE
:1011A00026EF0DF0090E40184110D8A4DAEF08F030
:1011B000DCEF08F08CEF09F020EE0AF04250D9265F
:1011C0004350DA22000EDFB2010E386E20EE0AF034
:1011D0004250D9264350DA22000EDFB4010E396E98
:1011E00020EE0AF04250D9264350DA22000EDFB634
:1011F000010E3A6E20EE0AF04250D9264350DA2210
:10120000000EDFB8010E3B6E20EE0AF04250D926E8
:101210004350DA22000EDFBA010E3C6E20EE0AF0D7
:101220004250D9264350DA22000EDFBC010E3D6E3B
:1012300020EE0AF04250D9264350DA22000EDFBEDB
:10124000010E3E6E20EE0AF04250D9264350DA22BB
:10125000DFB02DEF09F030EF09F0010E31EF09F0AA
:10126000000E1BEC0FF020EE16F04250D926435032
:10127000DA22000EDFB2010E386E20EE16F0425078
:10128000D9264350DA22000EDFB4010E396E20EE6B
:1012900016F04250D9264350DA22000EDFB6010E76
:1012A0003A6E20EE16F04250D9264350DA22000E54
:1012B000DFB8010E3B6E20EE16F04250D9264350A7
:1012C000DA22000EDFBA010E3C6E20EE16F042501C
:1012D000D9264350DA22000EDFBC010E3D6E20EE0F
:1012E00016F04250D9264350DA22000EDFBE010E1E
:1012F0003E6E20EE16F04250D9264350DA22DFB07F
:1013000084EF09F087EF09F0010E88EF09F0000E75
:10131000F1EC0EF026EF0DF00A0E40184110D8A4A3
:1013200094EF09F096EF09F046EF0AF020EE09F08D
:101330004250D9264350DA22000EDFB2010E386E39
:1013400020EE09F04250D9264350DA22000EDFB4D5
:10135000010E396E20EE09F04250D9264350DA22B0
:10136000000EDFB6010E3A6E20EE09F04250D9268B
:101370004350DA22000EDFB8010E3B6E20EE09F07A
:101380004250D9264350DA22000EDFBA010E3C6EDD
:1013900020EE09F04250D9264350DA22000EDFBC7D
:1013A000010E3D6E20EE09F04250D9264350DA225C
:1013B000000EDFBE010E3E6E20EE09F04250D9262F
:1013C0004350DA22DFB0E7EF09F0EAEF09F0010E4F
:1013D000EBEF09F0000E1BEC0FF020EE15F0425081
:1013E000D9264350DA22000EDFB2010E386E20EE0D
:1013F00015F04250D9264350DA22000EDFB4010E18
:10140000396E20EE15F04250D9264350DA22000EF4
:10141000DFB6010E3A6E20EE15F04250D926435049
:10142000DA22000EDFB8010E3B6E20EE15F04250BE
:10143000D9264350DA22000EDFBA010E3C6E20EEB0
:1014400015F04250D9264350DA22000EDFBC010EBF
:101450003D6E20EE15F04250D9264350DA22000EA0
:10146000DFBE010E3E6E20EE15F04250D9264350ED
:10147000DA22DFB03EEF0AF041EF0AF0010E42EF50
:101480000AF0000EF1EC0EF026EF0DF00B0E4018F6
:101490004110D8A44EEF0AF050EF0AF000EF0BF025
:1014A00020EE08F04250D9264350DA22000EDFB277
:1014B000010E386E20EE08F04250D9264350DA2251
:1014C000000EDFB4010E396E20EE08F04250D9262E
:1014D0004350DA22000EDFB6010E3A6E20EE08F01D
:1014E0004250D9264350DA22000EDFB8010E3B6E7F
:1014F00020EE08F04250D9264350DA22000EDFBA1F
:10150000010E3C6E20EE08F04250D9264350DA22FC
:10151000000EDFBC010E3D6E20EE08F04250D926D1
:101520004350DA22000EDFBE010E3E6E20EE08F0C0
:101530004250D9264350DA22DFB0A1EF0AF0A4EFDF
:101540000AF0010EA5EF0AF0000E1BEC0FF020EEE2
:1015500014F04250D9264350DA22000EDFB2010EB9
:10156000386E20EE14F04250D9264350DA22000E95
:10157000DFB4010E396E20EE14F04250D9264350EC
:10158000DA22000EDFB6010E3A6E20EE14F0425061
:10159000D9264350DA22000EDFB8010E3B6E20EE52
:1015A00014F04250D9264350DA22000EDFBA010E61
:1015B0003C6E20EE14F04250D9264350DA22000E41
:1015C000DFBC010E3D6E20EE14F04250D926435090
:1015D000DA22000EDFBE010E3E6E20EE14F0425005
:1015E000D9264350DA22DFB0F8EF0AF0FBEF0AF019
:1015F000010EFCEF0AF0000EF1EC0EF026EF0DF0FC
:101600000C0E40184110D8A408EF0BF00AEF0BF0B5
:10161000BAEF0BF020EE07F04250D9264350DA2201
:10162000000EDFB2010E386E20EE07F04250D926D0
:101630004350DA22000EDFB4010E396E20EE07F0BF
:101640004250D9264350DA22000EDFB6010E3A6E20
:1016500020EE07F04250D9264350DA22000EDFB8C0
:10166000010E3B6E20EE07F04250D9264350DA229D
:10167000000EDFBA010E3C6E20EE07F04250D92674
:101680004350DA22000EDFBC010E3D6E20EE07F063
:101690004250D9264350DA22000EDFBE010E3E6EC4
:1016A00020EE07F04250D9264350DA22DFB05BEF3C
:1016B0000BF05EEF0BF0010E5FEF0BF0000E1BEC7A
:1016C0000FF020EE13F04250D9264350DA22000EDC
:1016D000DFB2010E386E20EE13F04250D92643508F
:1016E000DA22000EDFB4010E396E20EE13F0425004
:1016F000D9264350DA22000EDFB6010E3A6E20EEF4
:1017000013F04250D9264350DA22000EDFB8010E02
:101710003B6E20EE13F04250D9264350DA22000EE1
:10172000DFBA010E3C6E20EE13F04250D926435032
:10173000DA22000EDFBC010E3D6E20EE13F04250A7
:10174000D9264350DA22000EDFBE010E3E6E20EE97
:1017500013F04250D9264350DA22DFB0B2EF0BF03B
:10176000B5EF0BF0010EB6EF0BF0000EF1EC0EF042
:1017700026EF0DF00D0E40184110D8A4C2EF0BF06B
:10178000C4EF0BF015EF0CF020EE1CF04250D92600
:101790004350DA22000EDFB2010E386E20EE1CF04C
:1017A0004250D9264350DA22000EDFB4010E396EC2
:1017B00020EE1CF04250D9264350DA22000EDFB64C
:1017C000010E3A6E20EE1CF04250D9264350DA2228
:1017D000000EDFB8010E3B6E20EE1CF04250D92601
:1017E0004350DA22000EDFBA010E3C6E20EE1CF0F0
:1017F0004250D9264350DA22000EDFBC010E3D6E66
:10180000000E3E6E20EE1CF04250D9264350DA22E4
:10181000DFB00DEF0CF010EF0CF0010E11EF0CF03B
:10182000000EC7EC0EF026EF0DF00E0E4018411022
:10183000D8A41DEF0CF01FEF0CF070EF0CF020EEB1
:101840001BF04250D9264350DA22000EDFB2010EBF
:10185000386E20EE1BF04250D9264350DA22000E9B
:10186000DFB4010E396E20EE1BF04250D9264350F2
:10187000DA22000EDFB6010E3A6E20EE1BF0425067
:10188000D9264350DA22000EDFB8010E3B6E20EE5F
:101890001BF04250D9264350DA22000EDFBA010E67
:1018A0003C6E20EE1BF04250D9264350DA22000E47
:1018B000DFBC010E3D6E000E3E6E20EE1BF042506E
:1018C000D9264350DA22DFB068EF0CF06BEF0CF052
:1018D000010E6CEF0CF0000EC7EC0EF026EF0DF0D1
:1018E0000F0E40184110D8A478EF0CF07AEF0CF0EE
:1018F000CBEF0CF020EE1AF04250D9264350DA22FA
:10190000000EDFB2010E386E20EE1AF04250D926DA
:101910004350DA22000EDFB4010E396E20EE1AF0C9
:101920004250D9264350DA22000EDFB6010E3A6E3D
:1019300020EE1AF04250D9264350DA22000EDFB8CA
:10194000010E3B6E20EE1AF04250D9264350DA22A7
:10195000000EDFBA010E3C6E20EE1AF04250D9267E
:101960004350DA22000EDFBC010E3D6E000E3E6ECB
:1019700020EE1AF04250D9264350DA22DFB0C3EFEE
:101980000CF0C6EF0CF0010EC7EF0CF0000EC7EC28
:101990000EF026EF0DF0100E40184110D8A4D3EF32
:1019A0000CF0D5EF0CF026EF0DF020EE19F04250C0
:1019B000D9264350DA22000EDFB2010E386E20EE37
:1019C00019F04250D9264350DA22000EDFB4010E3E
:1019D000396E20EE19F04250D9264350DA22000E1B
:1019E000DFB6010E3A6E20EE19F04250D926435070
:1019F000DA22000EDFB8010E3B6E20EE19F04250E5
:101A0000D9264350DA22000EDFBA010E3C6E20EEDA
:101A100019F04250D9264350DA22000EDFBC010EE5
:101A20003D6E000E3E6E20EE19F04250D926435016
:101A3000DA22DFB01EEF0DF021EF0DF0010E22EFE4
:101A40000DF0000EC7EC0EF026EF0DF0120038047A
:101A50003910D8B42EEF0DF030EF0DF03AEF0DF055
:101A6000090E38183910D8A438EF0DF03AEF0DF000
:101A70003FEF0DF0899C899E8C90ECEF0DF0020EEB
:101A800038183910D8B447EF0DF049EF0DF053EF87
:101A90000DF00A0E38183910D8A451EF0DF053EF9D
:101AA0000DF058EF0DF0898C899E8C90ECEF0DF0C5
:101AB000030E38183910D8B460EF0DF062EF0DF056
:101AC0006CEF0DF00B0E38183910D8A46AEF0DF03A
:101AD0006CEF0DF071EF0DF0899C898E8C90ECEF1E
:101AE0000DF0040E38183910D8B479EF0DF07BEFF3
:101AF0000DF085EF0DF00C0E38183910D8A483EFD7
:101B00000DF085EF0DF08AEF0DF0898C898E8C90A9
:101B1000ECEF0DF0050E38183910D8B492EF0DF037
:101B200094EF0DF09EEF0DF00D0E38183910D8A47B
:101B30009CEF0DF09EEF0DF0A3EF0DF0899C899EB8
:101B40008C80ECEF0DF0060E38183910D8B4ABEFDE
:101B50000DF0ADEF0DF0B7EF0DF00E0E3818391097
:101B6000D8A4B5EF0DF0B7EF0DF0BCEF0DF0898CF8
:101B7000899E8C80ECEF0DF0070E38183910D8B420
:101B8000C4EF0DF0C6EF0DF0D0EF0DF00F0E3818CA
:101B90003910D8A4CEEF0DF0D0EF0DF0D5EF0DF049
:101BA000899C898E8C80ECEF0DF0080E3818391066
:101BB000D8B4DDEF0DF0DFEF0DF0E9EF0DF0100E12
:101BC00038183910D8A4E7EF0DF0E9EF0DF0ECEF7D
:101BD0000DF0898C898E8C8039BEFCEF0DF0395068
:101BE00007E1090E385CD8B0F8EF0DF0FCEF0DF00E
:101BF0003A6A3A2AFDEF0DF03A6A3A468C503A18A2
:101C0000FD0B3A188C6E89961200C0EC10F0C2ECF5
:101C100010F0116E49EC10F0D8B011EF0EF013EF88
:101C20000EF017EF0EF0020E136E43EF0EF0010EE2
:101C3000136E43EF0EF03DEC10F0D8B022EF0EF033
:101C400024EF0EF028EF0EF0A8EC0FF02CEF0EF0C2
:101C5000BFEC0FF0C6EC10F0000E126E58EF0EF055
:101C600055EC10F0D8A037EF0EF039EF0EF03FEF43
:101C70000EF0D6EC0FF0020E126E58EF0EF0EDECF7
:101C80000FF02CEF0EF01350326E336A3350000A0F
:101C9000D8B44DEF0EF058EF0EF03250010AD8B420
:101CA0001BEF0EF0030AD8B430EF0EF058EF0EF031
:101CB00012C013F0C8EC10F0120073EC10F0F28EAA
:101CC000F28CBCEC10F09AEC0EF0080E386E200E80
:101CD000396E8BEC10F0320E386E200E396E95ECAA
:101CE00010F00150021003100410D8A47AEF0EF087
:101CF0007CEF0EF07EEF0EF061EC10F0010E01248F
:101D0000486E000E0220496E000E03204A6E000E3F
:101D100004204B6E070E4814016E000E4914026E2B
:101D2000000E4A14036E000E4B14046E71EF0EF099
:101D300056EF00F00A0E3A6E1C0E3B6E6CEC10F083
:101D40002EEC10F0260EA3EC10F07F0E9FEC10F09E
:101D5000960E386E210E396E9AEC10F04E0E386EDB
:101D6000210E396E81EC10F05E0E386E210E396E48
:101D70008BEC10F0660E386E210E396E95EC10F07B
:101D8000960E386E210E396E86EC10F012003F6E02
:101D90003FB002D08B9001D08B8038B002D08B9EA8
:101DA00001D08B8E39B002D08B9201D08B823AB0A9
:101DB00002D08B9C01D08B8C3BB002D08B9401D095
:101DC0008B843CB002D08B9A01D08B8A3DB002D07C
:101DD0008C9601D08C863EB002D08C9401D08C843D
:101DE00012003F6E3FB002D08A9201D08A8238B092
:101DF00002D08D9201D08D8239B002D08A9001D06C
:101E00008A803AB002D08D9401D08D843BB002D04C
:101E10008C9E01D08C8E3CB002D08C9C01D08C8CDE
:101E20003DB002D08C9A01D08C8A3EB002D08C9802
:101E300001D08C8812003F6E3FB002D08A9E01D044
:101E40008A8E38B002D08A9C01D08A8C39B002D0F8
:101E50008A9A01D08A8A3AB002D08A9801D08A88B8
:101E60003BB002D08A9601D08A863CB002D0899AD3
:101E700001D0898A3DB002D08A9401D08A843EB0D4
:101E800002D08D9001D08D801200BAEC10F04EC0BF
:101E900040F04FC041F044C042F045C043F003EC75
:101EA00003F04EC038F04FC039F027EC0DF04E4A29
:101EB0004F2A4FBE65EF0FF04F5009E1110E4E5CF7
:101EC000D8A065EF0FF067EF0FF06BEF0FF0000E8B
:101ED0004F6E010E4E6E1200000E8D6E000E8C6E57
:101EE000000E896E000E8A6E000E8B6E000E966ECE
:101EF000130E926E000E936E180E946E000E956E79
:101F0000000E0F013B6F000E3A6F000E396F000E8E
:101F10003C6F030E386F000E616EF18E1200940E4E
:101F2000F66E210EF76E000EF86E0900F5CF4EF03A
:101F30000900F5CF4FF000EE01F0300EEE6AE80632
:101F4000FDE150905092000EF86E00015DEF0EF032
:101F500009500A10D8B4AFEF0FF0B1EF0FF0BEEF99
:101F60000FF002D8BEEF0FF00500FA6E0950FD6EBB
:101F70000A50FE6EF850FF6EFA5012001200055023
:101F80000610D8B4C6EF0FF0C8EF0FF0D5EF0FF082
:101F900002D8D5EF0FF00500FA6E0550FD6E065021
:101FA000FE6EF850FF6EFA50120012000B500C102B
:101FB000D8B4DDEF0FF0DFEF0FF0ECEF0FF002D849
:101FC000ECEF0FF00500FA6E0B50FD6E0C50FE6E3C
:101FD000F850FF6EFA501200120007500810D8B4E3
:101FE000F4EF0FF0F6EF0FF003EF10F002D803EF6D
:101FF00010F00500FA6E0750FD6E0850FE6EF850A6
:10200000FF6EFA5012001200150E0F24D96EDA6A14
:10201000000EDA22B7EC10F0DF6E0F2A1B0E0F64F1
:1020200014EF10F016EF10F018EF10F0000E0F6E16
:102030001200000E0F6E89B420EF10F023EF10F0A5
:10204000010E24EF10F0000EFF0A316E31463146CA
:1020500089503118FB0B3118896E1200C6BA33EF64
:1020600010F035EF10F03CEF10F0360EC612800E77
:10207000C76E010EC56EC68A1200C6BE42EF10F0D2
:1020800046EF10F0316A312A47EF10F0316A3130F3
:102090001200C7B44EEF10F052EF10F0316A312A3F
:1020A00053EF10F0316A31301200C7BA5AEF10F016
:1020B0005EEF10F0316A312A5FEF10F0316A313093
:1020C0001200150E466E000E476E46C044F047C023
:1020D00045F045EC0FF012003AC038F03BC039F043
:1020E00090EC10F01200BEEC10F06CEC0FF07AECFB
:1020F00010F01200400ED36E040ED26E000E9B6ED6
:10210000120038C009F039C00AF0120038C005F0DA
:1021100039C006F0120038C00BF039C00CF01200C4
:1021200038C04CF039C04DF0120038C007F039C04B
:1021300008F0120038C00DF039C00EF01200386EF1
:1021400038C0CAFF1200386E38C0C8FF12001450E1
:10215000ABEC10F01200316E31C0C9FF1200C2ECBE
:1021600010F0116E1200C4EC10F0106E1200C2ECF0
:1021700010F01200898612009D861200D09E120077
:102180009E961200C9501200C8501200C58212005B
:08219000C688120001001200D4
:020000040020DA
:08000000FFFFFFFFFFFFFFFF00
:020000040030CA
:0E000000FF281F3CFFBF85FF0FC00FE00F4021
:00000001FF
