:020000040000FA
:0400000081EF0AF092
:10060000000400030002000100000001006400007B
:10061000000093EC0AF09490949294949496949E93
:100620009282928092849488948A948C9286928A00
:10063000968096829684928E8B9E80B222EF03F0F3
:1006400025EF03F0010E26EF03F0000E0001C96F45
:10065000000EC66F000EC56F000EC86F640EC76F28
:1006600020EED1F010EECAF0060EDBCFE3FFE80675
:10067000FCE2000ECB6F640ECA6F000EA16F0A0E73
:10068000A06F000EA36F0A0EA26F000EA56F0A0ED8
:10069000A46F000EA76F0A0EA66F000EA96F0A0EB8
:1006A000A86F000EAB6F0A0EAA6F000EAD6F0A0E98
:1006B000AC6F000EAF6F0A0EAE6F000EB16F0A0E78
:1006C000B06F000EB36F0A0EB26F000EC26F000E55
:1006D000C16F000EBD6F000EBC6FBD5109E1080E69
:1006E000BC5DD8A076EF03F078EF03F07AEF03F06B
:1006F000B0EF03F0000EBF6F000EBE6FBF5109E1F7
:10070000080EBE5DD8A087EF03F089EF03F08BEFF2
:1007100003F0ACEF03F0BCC015F0BDC016F0D890EC
:1007200015361636D89015361636D8901536163634
:10073000600E176E000E186E1550172616501822F0
:10074000BE511724D96EBF511820DA6E010EDF6E2C
:10075000BE4BBF2B7EEF03F0BC4BBD2B6DEF03F008
:10076000899CEAEF03F098EC0AF0C5C008F0C6C017
:1007700009F0B60E0A6E000E0B6E67EC09F0CCEFB6
:1007800003F080A0C6EF03F0C8EF03F0CCEF03F056
:10079000C569C669DEEF03F080B2D1EF03F0D4EF94
:1007A00003F0010ED5EF03F0000E0001C919D8B413
:1007B000DCEF03F0DEEF03F0C1EF03F080B2E3EF14
:1007C00003F0E6EF03F0010EE7EF03F0000EC96F50
:1007D000C54BC62B0001C6BFF7EF03F0C65109E1B8
:1007E000040EC55DD8A0F7EF03F0F9EF03F0B3EF07
:1007F00003F0899C33EF04F098EC0AF0C7C008F0CE
:10080000C8C009F0B60E0A6E000E0B6EAEEC06F014
:1008100015EF04F080A00FEF04F011EF04F015EFD6
:1008200004F0C769C86927EF04F080B21AEF04F03A
:100830001DEF04F0010E1EEF04F0000E0001C919B7
:10084000D8B425EF04F027EF04F00AEF04F080B2EB
:100850002CEF04F02FEF04F0010E30EF04F0000E47
:10086000C96FC74BC82BC8BF3FEF04F0C85109E19F
:10087000040EC75DD8A03FEF04F041EF04F0FCEF99
:1008800003F0899C85EF04F098EC0AF0CAC008F0E8
:10089000CBC009F0CCC00AF0CDC00BF0CEC00CF03C
:1008A000CFC00DF0D0C00EF0B60E0F6E000E106E61
:1008B00084EC07F067EF04F080A061EF04F063EFD1
:1008C00004F067EF04F0CA69CB6979EF04F080B2F5
:1008D0006CEF04F06FEF04F0010E70EF04F0000E07
:1008E0000001C919D8B477EF04F079EF04F05CEF98
:1008F00004F080B27EEF04F081EF04F0010E82EF8D
:1009000004F0000EC96FCA4BCB2BCBBF91EF04F0A4
:10091000CB5109E1040ECA5DD8A091EF04F093EF2A
:1009200004F044EF04F0899C010EB56F80B69BEF94
:1009300004F09EEF04F0010E9FEF04F0000E156E20
:10094000166AA051151807E1A1511618D8A4ABEFEB
:1009500004F0ADEF04F07EEF05F080BAB2EF04F0E2
:10096000B5EF04F0010EB6EF04F0000E156E166A36
:10097000A251151807E1A3511618D8A4C2EF04F02C
:10098000C4EF04F07EEF05F084B0C9EF04F0CCEFC3
:1009900004F0010ECDEF04F0000E156E166AA4519E
:1009A000151807E1A5511618D8A4D9EF04F0DBEF0C
:1009B00004F07EEF05F084B2E0EF04F0E3EF04F022
:1009C000010EE4EF04F0000E156E166AA65115181C
:1009D00007E1A7511618D8A4F0EF04F0F2EF04F0E5
:1009E0007EEF05F084B4F7EF04F0FAEF04F0010EA7
:1009F000FBEF04F0000E156E166AA851151807E1FA
:100A0000A9511618D8A407EF05F009EF05F07EEFFD
:100A100005F080B40EEF05F011EF05F0010E12EFB6
:100A200005F0000E156E166AAA51151807E1AB51B4
:100A30001618D8A41EEF05F020EF05F07EEF05F0A4
:100A400082B825EF05F028EF05F0010E29EF05F03B
:100A5000000E156E166AAC51151807E1AD51161847
:100A6000D8A435EF05F037EF05F07EEF05F082BA38
:100A70003CEF05F03FEF05F0010E40EF05F0000EF2
:100A8000156E166AAE51151807E1AF511618D8A4A5
:100A90004CEF05F04EEF05F07EEF05F082BC53EF12
:100AA00005F056EF05F0010E57EF05F0000E156E3C
:100AB000166AB051151807E1B1511618D8A463EFA2
:100AC00005F065EF05F07EEF05F080BE6AEF05F0FA
:100AD0006DEF05F0010E6EEF05F0000E156E166A53
:100AE000B251151807E1B3511618D8A47AEF05F0E2
:100AF0007CEF05F07EEF05F0000EB56FB551D8A480
:100B000084EF05F087EF05F0010E88EF05F0000E89
:100B1000B46FB451D8B48FEF05F091EF05F021EF29
:100B200006F0000EC86F000EC76F80B69AEF05F092
:100B30009EEF05F0156A152A9FEF05F0156A15500E
:100B40000001A06FA16B80BAA8EF05F0ACEF05F033
:100B5000156A152AADEF05F0156A15500001A26F50
:100B6000A36B84B0B6EF05F0BAEF05F0156A152A4D
:100B7000BBEF05F0156A15500001A46FA56B84B298
:100B8000C4EF05F0C8EF05F0156A152AC9EF05F0A6
:100B9000156A15500001A66FA76B84B4D2EF05F05B
:100BA000D6EF05F0156A152AD7EF05F0156A15502E
:100BB0000001A86FA96B80B4E0EF05F0E4EF05F049
:100BC000156A152AE5EF05F0156A15500001AA6FA0
:100BD000AB6B82B8EEEF05F0F2EF05F0156A152A5F
:100BE000F3EF05F0156A15500001AC6FAD6B82BADA
:100BF000FCEF05F000EF06F0156A152A01EF06F08C
:100C0000156A15500001AE6FAF6B82BC0AEF06F09B
:100C10000EEF06F0156A152A0FEF06F0156A15504B
:100C20000001B06FB16B80BE18EF06F01CEF06F04C
:100C3000156A152A1DEF06F0156A15500001B26FEE
:100C4000B36B010EC125156E000EC221166E070E84
:100C50001514C16FC26BC1C001F0C2C002F0000E1A
:100C6000036E3AEC08F0000E0001C46F000EC36F73
:100C7000C45109E1080EC35DD8A041EF06F043EF6F
:100C800006F045EF06F0A2EF06F0C3C001F0C4C0C5
:100C900002F0DBEC08F00001C06FC1C015F0C2C06B
:100CA00016F0D89015361636D89015361636D890D8
:100CB00015361636600E176E000E186E1550172674
:100CC00016501822C3511724D96EC4511820DA6E59
:100CD000C051DE18D8B46FEF06F071EF06F09EEF4A
:100CE00006F0C1C015F0C2C016F0D8901536163601
:100CF000D89015361636D89015361636600E176E03
:100D0000000E186E1550172616501822C3511724BE
:100D1000D96EC4511820DA6EC0C0DFFF000ECB6F51
:100D2000000ECA6FC1C0CCF0C2C0CDF0C3C0CEF0BF
:100D3000C4C0CFF0C0C0D0F0A2EF06F0C34BC42BAC
:100D400038EF06F0C1C001F0C2C002F0010E036E20
:100D50003AEC08F0EAEF03F000EF00F00850091059
:100D6000D8A4B5EF06F0B7EF06F0D1EF06F0000E0D
:100D70000C6E010E0D6E80B6C0EF06F0C3EF06F0EC
:100D8000010EC4EF06F0000E0E6E80BACAEF06F038
:100D9000CDEF06F0010ECEEF06F0000E0F6E6BEFFA
:100DA00007F008040910D8A4D8EF06F0DAEF06F02F
:100DB00004EF07F084B0DFEF06F0E2EF06F0010E7B
:100DC000E3EF06F0000E0C6E84B2E9EF06F0ECEFF4
:100DD00006F0010EEDEF06F0000E0D6E84B4F3EF99
:100DE00006F0F6EF06F0010EF7EF06F0000E0E6EBD
:100DF00080B4FDEF06F000EF07F0010E01EF07F001
:100E0000000E0F6E6BEF07F0020E08180910D8A441
:100E10000CEF07F00EEF07F038EF07F082B813EF92
:100E200007F016EF07F0010E17EF07F0000E0C6E3B
:100E300082BA1DEF07F020EF07F0010E21EF07F057
:100E4000000E0D6E82BC27EF07F02AEF07F0010EAF
:100E50002BEF07F0000E0E6E80BE31EF07F034EF7F
:100E600007F0010E35EF07F0000E0F6E6BEF07F085
:100E7000030E08180910D8A440EF07F042EF07F05E
:100E80006BEF07F00AC0D9FF0BC0DAFFDECF01F02D
:100E9000DDCF02F033EC0AF00C6E20EE02F00A50C7
:100EA000D9260B50DA22DECF01F0DDCF02F033EC91
:100EB0000AF00D6E20EE04F00A50D9260B50DA220B
:100EC000DECF01F0DDCF02F033EC0AF00E6E010E42
:100ED0000F6E6BEF07F00DC001F00EC002F00FC0F7
:100EE00003F00C50E5EC09F0D8900834D96E0934C1
:100EF000DA6E0A50D9260B50DA2201C0DEFF02C09A
:100F0000DDFF9BEC0AF0120008500910D8A48BEF0B
:100F100007F08DEF07F0A7EF07F0010E116E000E3E
:100F2000126E0AB496EF07F099EF07F0010E9AEFF0
:100F300007F0000E136E0AB2A0EF07F0A3EF07F060
:100F4000010EA4EF07F0000E146E21EF08F0080464
:100F50000910D8A4AEEF07F0B0EF07F0DAEF07F012
:100F60000AB0B5EF07F0B8EF07F0010EB9EF07F0E0
:100F7000000E116E0CB4BFEF07F0C2EF07F0010EC8
:100F8000C3EF07F0000E126E0CB2C9EF07F0CCEF02
:100F900007F0010ECDEF07F0000E136E0CB0D3EF8B
:100FA00007F0D6EF07F0010ED7EF07F0000E146E32
:100FB00021EF08F0020E08180910D8A4E2EF07F09C
:100FC000E4EF07F0EEEF07F00EC011F0000E126E26
:100FD000000E136E000E146E21EF08F0030E0818B9
:100FE0000910D8A4F6EF07F0F8EF07F021EF08F0AA
:100FF0000FC0D9FF10C0DAFFDECF01F0DDCF02F065
:1010000033EC0AF0116E20EE02F00F50D92610508A
:10101000DA22DECF01F0DDCF02F033EC0AF0126EFF
:1010200020EE04F00F50D9261050DA22DECF01F066
:10103000DDCF02F033EC0AF0136E010E146E21EFD7
:1010400008F012C001F013C002F014C003F01150F8
:10105000E5EC09F0D8900834D96E0934DA6E0F50F7
:10106000D9261050DA2201C0DEFF02C0DDFF9BEC62
:101070000AF01200ACEF08F00350D8B442EF08F0C9
:1010800044EF08F047EF08F08C80DAEF08F08C901E
:10109000DAEF08F00350D8B450EF08F052EF08F040
:1010A00055EF08F08C82DAEF08F08C92DAEF08F056
:1010B0000350D8B45EEF08F060EF08F063EF08F07B
:1010C0008C84DAEF08F08C94DAEF08F00350D8B48F
:1010D0006CEF08F06EEF08F071EF08F08C86DAEF35
:1010E00008F08C96DAEF08F00350D8B47AEF08F0E5
:1010F0007CEF08F07FEF08F08C88DAEF08F08C982E
:10110000DAEF08F00350D8B488EF08F08AEF08F05F
:101110008DEF08F08C8ADAEF08F08C9ADAEF08F09D
:101120000350D8B496EF08F098EF08F09BEF08F062
:101130008C8CDAEF08F08C9CDAEF08F00350D8B40E
:10114000A4EF08F0A6EF08F0A9EF08F08C8EDAEF14
:1011500008F08C9EDAEF08F001C004F002C005F040
:101160000550000AD8B4B7EF08F0DAEF08F00450E1
:10117000000AD8B43CEF08F0010AD8B44AEF08F0EE
:10118000030AD8B458EF08F0010AD8B466EF08F0A3
:10119000070AD8B474EF08F0010AD8B482EF08F057
:1011A000030AD8B490EF08F0010AD8B49EEF08F013
:1011B000DAEF08F0120038EF09F081B0E2EF08F042
:1011C000E5EF08F0010EE6EF08F0000E66EF09F01B
:1011D00081B2EDEF08F0F0EF08F0010EF1EF08F04A
:1011E000000E66EF09F081B4F8EF08F0FBEF08F0AD
:1011F000010EFCEF08F0000E66EF09F081B603EF78
:1012000009F006EF09F0010E07EF09F0000E66EF96
:1012100009F081B80EEF09F011EF09F0010E12EF9D
:1012200009F0000E66EF09F081BA19EF09F01CEF22
:1012300009F0010E1DEF09F0000E66EF09F081BC08
:1012400024EF09F027EF09F0010E28EF09F0000E56
:1012500066EF09F081BE2FEF09F032EF09F0010EC1
:1012600033EF09F0000E66EF09F0010E66EF09F0AA
:1012700001C003F002C004F00450000AD8B443EFE8
:1012800009F035EF09F00350000AD8B4DDEF08F09B
:10129000010AD8B4E8EF08F0030AD8B4F3EF08F075
:1012A000010AD8B4FEEF08F0070AD8B409EF09F034
:1012B000010AD8B414EF09F0030AD8B41FEF09F0FB
:1012C000010AD8B42AEF09F035EF09F012000850EE
:1012D0000910D8A46EEF09F070EF09F07AEF09F069
:1012E000000E0C6E000E0D6E000E0E6E000E0F6ED8
:1012F000CCEF09F008040910D8A481EF09F083EFBE
:1013000009F08DEF09F0000E0C6E000E0D6E000E50
:101310000E6E010E0F6ECCEF09F0020E08180910C8
:10132000D8A495EF09F097EF09F099EF09F070EF65
:1013300009F0030E08180910D8A4A1EF09F0A3EFD3
:1013400009F0CCEF09F00AC0D9FF0BC0DAFFDECFFD
:1013500001F0DDCF02F033EC0AF00C6E20EE02F06B
:101360000A50D9260B50DA22DECF01F0DDCF02F091
:1013700033EC0AF00D6E20EE04F00A50D9260B5023
:10138000DA22DECF01F0DDCF02F033EC0AF00E6E90
:10139000010E0F6ECCEF09F00DC001F00EC002F08F
:1013A0000FC003F00C50E5EC09F0D8900834D96E6A
:1013B0000934DA6E0A50D9260B50DA2201C0DEFF5A
:1013C00002C0DDFF9BEC0AF01200046E0450D8B49A
:1013D000ECEF09F0EEEF09F0F1EF09F08B80F2EF9E
:1013E00009F08B900150D8B4F8EF09F0FAEF09F04A
:1013F000FDEF09F08B82FEEF09F08B920250D8B41A
:1014000004EF0AF006EF0AF009EF0AF08B840AEF06
:101410000AF08B940350D8B410EF0AF012EF0AF0E0
:1014200015EF0AF08B8616EF0AF08B96000E066E0B
:10143000000E056ED8900536063604500512D89079
:101440000536063601500512D8900536063602508C
:101450000512D890053606360350051205C001F076
:1014600006C002F01200000E076E54EF0AF007509B
:10147000D8B43DEF0AF040EF0AF0010E41EF0AF058
:10148000000E076EFF0E036EFF0E046E01C005F026
:1014900002C006F003500526045006220150051430
:1014A000016E02500614026E01500210D8A45BEFC8
:1014B0000AF05DEF0AF037EF0AF007501200000E55
:1014C0008D6E000E8C6E000E896E000E8A6E000E00
:1014D0008B6E070E966EBF0E926E9368700E946EB2
:1014E000000E956E000E0F013B6F000E3A6F000E5E
:1014F000396F000E3C6F000E386F000E616EF18E7A
:10150000120000EED1F0070EEE6AE806FDE1000ED3
:10151000F86E000109EF03F0300ED36E040ED26EA8
:10152000000E9B6E12005FEC0AF08CEC0AF01200C9
:0A1530008B9E898C12008B8E120036
:020000040020DA
:08000000FFFFFFFFFFFFFFFF00
:020000040030CA
:0E000000FF281F3CFFBF85FF0FC00FE00F4021
:00000001FF
